:020000040800F2
:10F00000D0BE002081F200082F420108853401089B
:10F010002D420108E9030108A55301080000000082
:10F02000000000000000000000000000A1F1000846
:10F030006304010800000000FDF100089D4D010877
:10F040009BF200089BF200089BF200089BF200086C
:10F050009BF200089BF200089BF200089BF200085C
:10F060009BF200089BF200089BF200089BF200084C
:10F070009BF200081D0401089BF200089BF20008A7
:10F080009BF200089BF200089BF200089BF200082C
:10F090009BF200089BF200089BF200089BF200081C
:10F0A0009BF20008894E01089BF200089BF20008C1
:10F0B0009BF2000800000000000000009BF2000826
:10F0C0009BF200089BF200089BF200089BF20008EC
:10F0D0009BF20008995301089BF200089BF200087C
:10F0E0009BF200089BF200080000000000000000F6
:10F0F0000000000000000000000000000000000010
:10F10000000000009BF20008000000009BF20008D5
:10F1100000000000000000009BF200089BF20008C5
:10F120009BF200089BF200089BF200089BF200088B
:10F130009BF200080000000000000000000000003A
:10F140009BF200089BF200089BF200080000000000
:10F150009BF2000829040108FD3D01089BF200080C
:10F160009BF200089BF200089BF2000800000000E0
:10F170009BF200089BF20008000000000000000065
:10F180009BF200089BF200089BF20008DFF80CD00D
:10F1900000F092FE0048004759650108D0BE0020EB
:10F1A0002C4B1968086800F05AB880F30988BFF33F
:10F1B0006F8F4FF0000080F311887047000000004F
:10F1C00008480068006880F308884FF0000080F36A
:10F1D000148862B661B6BFF34F8FBFF36F8F00DF45
:10F1E00000BF00BF08ED00E0DFF80C00016841F44B
:10F1F00070010160704700BF88ED00E0EFF3098007
:10F20000BFF36F8F134B1A681EF0100F08BF20ED6D
:10F21000108A20E9F04F106009B44FF0500080F3DD
:10F220001188BFF34F8FBFF36F8F08F05DFE4FF073
:10F23000000080F3118809BC1968086800F014B850
:10F240001EF0100F08BF00F014B880F30988BFF358
:10F250006F8F704764000020EFF30580704730C85F
:10F26000B0E8C04FFFF7A1BF30C8B0E8C04FFFF70C
:10F27000E7BFB0EC088AB0EC08CAFFF7E6BF0000B1
:10F280000648804706480047FEE7FEE7FEE7FEE740
:10F29000FEE7FEE7FEE7FEE7FEE7FEE7454E010874
:10F2A0008DF100082DE9F05F0546002092469B464F
:10F2B00088460646814640241BE02846414647468C
:10F2C000224600F0E2FB53465A46C01A914110D341
:10F2D00011461846224600F0C9FB2D1A67EB0108BB
:10F2E0004F4622460120002100F0C0FB17EB000929
:10F2F0004E41201EA4F10104DFDC484631462A4677
:10F30000434600F000B830BCBDE8C09FA0F1410109
:10F31000192900D82030704740EA01039B0703D029
:10F3200009E008C9121F08C0042AFAD203E011F844
:10F33000013B00F8013B521EF9D27047D2B201E006
:10F3400000F8012B491EFBD270470022F6E710B5EA
:10F3500013460A4604461946FFF7F0FF204610BD43
:10F3600030B505462A460B4612F8010B13F8014B3F
:10F3700008B1A042F8D01CB1002802D06D1CF1E702
:10F38000284630BD421C10F8011B0029FBD1801A11
:10F39000704710B5002200E0521C835C8C5CA342D5
:10F3A00001D1002BF8D1D8B2E1B2401A10BD03460A
:10F3B00011F8012B00F8012B002AF9D118467047EB
:10F3C00030B505460020034600E05B1C934205D2A1
:10F3D000EC5CC85C201A01D1002CF6D130BD0000D5
:10F3E0000FB400B58DB010A909900B9000914FF0AB
:10F3F000FF300A9000200C900548069005480790C1
:10F400006A4609A80F9900F057FB0DB05DF814FB90
:10F41000D5FA0008F3FA00082DE9FF4F087883B009
:10F420009946FF2805D0491C2D2804D0002400202F
:10F4300008E000200BE00124F9E700EB800003EB7B
:10F440004000491C0B78FF2BF7D104B14042002348
:10F450000293147819461D462D2C01D02B2C04D173
:10F46000521C2D2C13D000240294AA461478FF2C91
:10F470000FD00A25A3FB057801FB05814FF0000C96
:10F4800003FB0C11521CE3194AEB0101EEE70124C6
:10F49000EAE7814453EA010002D019F5C87F06DA91
:10F4A00003980021C0E9001107B000F065B90025FC
:10F4B000AE4E2F46DFF8B882184600F0BDFCCDE90D
:10F4C0000001B9F1000002DAC9F1000400E00446CD
:10F4D0000023A74A1AEB030B42EB045A12E0E007A1
:10F4E00007D02A4633463846414600F055F90746CC
:10F4F00088462A4633461046194600F04DF905461F
:10F500000E466410002CEAD1DDE90001B9F1000FCC
:10F510005A46534606DA00F0B4F93A46434600F03C
:10F52000B0F905E000F038F93A46434600F034F906
:10F53000029A0AB181F00041039AC2E90001B3E7DF
:10F540002DE9FF4F1F468DB0D7E901464FF0FF3838
:10F550002E2045464FF000090B90B9696D1C0E989E
:10F560008847396A824688470028F6D1BAF1FF3FBA
:10F570000AD024F4D064002E11DDBAF12B0F08D08C
:10F58000BAF12D0F0BD102E0404611B08DE744F4E3
:10F590008064B9696D1C0E9888478246761E69465C
:10F5A000600501D52D2000E02B208DF8000001F131
:10F5B000010B0DF1200809E0B9696D1C0E98884710
:10F5C00082460F9844F40074761E0560002E02DD1A
:10F5D000BAF1300FF0D00B998A453ED144F0800447
:10F5E00006E00F99681CA9F1010944F40074086051
:10F5F000B9696D1C761E0E98884782463028F0D077
:10F600002BE00B998A4505D1200603D444F08004F1
:10F61000761E18E0504606F06CF808B30DF11301A1
:10F62000761E44F400748B4508D2AAF130000BF822
:10F63000010B200607D5A9F1010003E0200602D442
:10F6400009F101008146A00502D50F99681C0860E8
:10F65000B9696D1C0E9888478246002ED1DC53E0B4
:10F66000002E51DDBAF1650F02D0BAF1450F4BD132
:10F67000A00549D5B9696D1C24F44074761E0E9816
:10F6800088478246002E0CDD2B2804D0BAF12D0FBE
:10F6900007D144F48074B9696D1C0E98884782467E
:10F6A000761EE00501D52D2100E02B2108F8011B75
:10F6B000CDF82C8021E00DF12901761E44F4007470
:10F6C00088450CD2AAF1300010F0FF0088F8000045
:10F6D00002D10B99884509D908F1010806E0E00537
:10F6E00001D5244801E042F20F708146B9696D1CD2
:10F6F0000E98884782460F980560002E04DD50461C
:10F7000005F0F7FF0028D6D1F9690E988847FF2049
:10F710008BF8000088F800000020069007904B4608
:10F720006A4608A906A8FFF777FEA00502D46FF085
:10F7300001002AE714F0240F0AD0E00714D1DDE914
:10F7400006123868031D3B600068C0E900120BE038
:10F75000DDE9060100F094FB0146E00704D13868BA
:10F76000021D3A600068016028460EE70000144060
:10F770000000F03FF1D8FFFF30BCBDE8C08F70B58E
:10F78000064605F073FE046805460A22002130464D
:10F7900000F00EFA2C6070BD2DE9FE4F81EA0304E3
:10F7A00004F0004421F0004100944FF0000B23F0DE
:10F7B000004350EA01045ED052EA03045BD0C3F375
:10F7C0000A54C1F30A552C44A4F2F3340194A0FB6B
:10F7D0000254C1F3130141F48011C3F3130343F442
:10F7E000801301FB024400FB034E840A970A44EA9B
:10F7F000815447EA8357A4FB076802958D0A05FBED
:10F8000007854FEA932C04FB0C542705029D4FEA11
:10F81000065847EA1637B5EB08056EEB070C870E5E
:10F82000920E47EA811742EA8312A7FB0201B6EB68
:10F830000B0164EB00042B0D43EA0C335E1844EB20
:10F840001C50DA465146E7FB0201C5F313044FEAA8
:10F850000B3343EA14534FEA0432019C43EA060394
:10F86000A4F10C040294009CCDE900B400F0E7F987
:10F8700003B000F003B800200146F9E730BCBDE852
:10F88000C08F2DE9F04D81EA030404F0004B21F014
:10F89000004514464FF0000A23F0004150EA0502EB
:10F8A00020D054EA01021DD0C5F30A570246C5F321
:10F8B0001303C1F31300C1F30A5640F4801543F457
:10F8C0008013A7EB0608101BD64608F2FD3873EB31
:10F8D000050002D308F1010801E092185B41B8F17C
:10F8E000000F03DA00200146BDE8F08D00204FF440
:10F8F0008011064684460EE0171B73EB050705D3FF
:10F90000121B63EB050306434CEA010C49084FEA5E
:10F91000300092185B4150EA0107EDD152EA030032
:10F9200012D082EA040083EA0501084305D0101BC7
:10F93000AB4106D20122002306E000224FF0004333
:10F9400002E06FF0010253101AEB06004CEB085175
:10F9500010EB0A0041EB0B01BDE8F04D00F060B97F
:10F960000EB540F2334102910021CDE900110A4663
:10F970000B4600F064F903B000BD70B5C1F30A5244
:10F9800001F000450024C1F3130140F2FF3341F4BC
:10F9900080119A4201DA002070BD40F233439A424E
:10F9A000A2F2334203DC524200F06FF800E09040D4
:10F9B0002C43F1D0404270BD00F0004230F00040D6
:10F9C0000AD0C10D01F56071C0F3160042EA015181
:10F9D000C2084007114370470020014670470000ED
:10F9E00030B5041E71F1000404DB4FF000444042C6
:10F9F00064EB0101141E73F1000405DB1C464FF09B
:10FA00000043524263EB04038B4208BF824230BD85
:10FA100030B5041E71F1000404DB4FF00044404295
:10FA200064EB0101141E73F1000405DB1C464FF06A
:10FA30000043524263EB0403994208BF904230BD39
:10FA400030B50B46014600202022012409E021FAAE
:10FA500002F59D4205D303FA02F5491B04FA02F5AB
:10FA60002844151EA2F10102F1DC30BD202A04DB7E
:10FA7000203A00FA02F1002070479140C2F12003C1
:10FA800020FA03F3194390407047202A04DB203A00
:10FA900021FA02F00021704721FA02F3D040C2F1AE
:10FAA0002002914008431946704700000268114443
:10FAB0001378016018467047D160044951610449C8
:10FAC000116200211161114600F028BAADFA000858
:10FAD00009FF0008426842B1016811F8013B23B1F7
:10FAE000521EC0E90012184670470121C160881EED
:10FAF000704742685AB1C368016843B983688B4252
:10FB000005D0491E521CC0E90012002070474FF07A
:10FB1000FF3070470FB4002300B589B00CA90091E5
:10FB20000B996FF00042CB601E4B06931E4B079360
:10FB30000423CDE901321D4A089202466B4600209B
:10FB4000FFF7FEFC09B05DF814FB70B586B0064601
:10FB50004FF0FF300091CDE90101002015460C4621
:10FB600004903246694604A8FFF7D4FF0246049881
:10FB7000211825B108B1084600E020462860049805
:10FB800000280DD0002A02DD0098884208D0081B0A
:10FB90000094CDE901043246694604A8FFF7BAFF94
:10FBA00006B070BDD5FA0008F3FA000809FF000896
:10FBB0002DE9F04791460F4680460446002614F88A
:10FBC000015B2DB100F09CF90068405DC007F6D1E3
:10FBD0002B2D02D02D2D18D0641E4A4639462046C2
:10FBE00000F035FB27B13968A14201D1C7F8008088
:10FBF00071054FF002040BD54042002803DD05F0EB
:10FC000035FC0460A007BDE8F08746F48066E4E7B1
:10FC10000028F8DA05F02AFC04606FF00040F2E7F3
:10FC200010B5141E73F1000408DA401C41F1000104
:10FC300092185B411A4301D120F0010010BD2DE95B
:10FC4000F04D92469B4611B1B1FA81F202E0B0FA52
:10FC500080F220329046FFF709FF04460F4640EA43
:10FC60000A0041EA0B0153465A46084313D0114695
:10FC700053EA010019D0C8F140025046FFF705FFD2
:10FC800005460E46504659464246FFF7EFFE0843EA
:10FC900005D0012004E020463946BDE8F08D002063
:10FCA000054346EAE0762C4337430A986305E40AA5
:10FCB000A0EB08000022FD0A44EA47540A3002D5AE
:10FCC00000200146E9E7010510196941DDE9084511
:10FCD00000196941BDE8F04DA2E72DE9FE4F8046CD
:10FCE00081EA0300C00F0C46009021F0004123F090
:10FCF0000045B8EB0200A94105D240462146904696
:10FD00001C460B46024623F00040104347D0270D07
:10FD1000C7F30A00C3F30A510290401A0190402829
:10FD20006BDAC3F3130040F4801B0098924620B1B5
:10FD30000023D2EB030A63EB0B0B01985946C0F189
:10FD400040025046FFF792FE06460D465046594681
:10FD5000019A00F0C3F810EB08006141002487EA23
:10FD6000115284EAE7731A4340D0009A62B3019AB1
:10FD7000012A4FEA075215DC001B61EB02014FF02C
:10FD8000004202EA0752CDE90042001C41F5801111
:10FD900032462B46FFF753FF03B000F045B840460C
:10FDA0002146F9E7001B61EB0201001C41F58013BD
:10FDB00000185B412018A2F5001747EB030140EA49
:10FDC000D570B6196D4111E06D084FEA360645EA67
:10FDD000C0754FEA0752001B61EB0201001C41F5A0
:10FDE000801149084FEA30000019514132462B4634
:10FDF00003B000F01CB8FFF713BF009801224000C9
:10FE00000023D0EB020263EBE073009821464FEA37
:10FE1000E074B8EB000061EB0401E9E783F0004314
:10FE20005BE781F0004158E730BCBDE8C08F30BCD3
:10FE3000BDE8C04FFFF7DFBF0EB540F2334202927C
:10FE40000022CDE900221346FFF7F9FE03B000BD02
:10FE5000C1F30A52C1F3130140F2FF3341F48011A0
:10FE60009A4202DA00200146704740F233439A4238
:10FE7000A2F2334202DC5242FFF707BEFFF7F6BDA3
:10FE800001F0004330B421F0004150EA010206D0F5
:10FE90000A0DA2F56072C1F31301002A02DC30BC26
:10FEA00000207047440F44EAC104C100E01830BC90
:10FEB00000EBC25000F01DBA064C074D06E0E068AA
:10FEC00040F0010394E8070098471034AC42F6D3A1
:10FED000FFF760F9B8A20108D8A20108202A06DBC2
:10FEE000CB17203A41FA02F043EAE07306E041FA08
:10FEF00002F3D040C2F120029140084319467047F6
:10FF0000004870477CA2010810B50446FFF7F8FFCF
:10FF10000068005D00F0010010BD00002DE9F34F06
:10FF20008BB04FF0000801F10C000C464FF0010BB4
:10FF300046460DF1080A0190626901210198904737
:10FF4000051E2DD0252D2CD0216A8847C0B16269AD
:10FF5000012101989047216A88470028F7D1411E66
:10FF600062690198904700E0761CA1690B98884768
:10FF7000216A88470028F7D1E1690B988847DBE7B9
:10FF8000A1690B9888470746A84201D1761CD3E7A0
:10FF9000E1690B9888477F1C02D1B8F1000F6FD040
:10FFA00046E1002762693D463946019890472A2874
:10FFB00004D162690121019890470125DFF88492FC
:10FFC0006269012101989047A0F130010A290AD203
:10FFD0004F45E5DC07EB870100EB4107303FDFD4FD
:10FFE00045F01005ECE7E90601D46FF000476C28F6
:10FFF0000AD04C2814D0682815D06A280DD074284F
:020000040801F1
:100000001CD07A281AD01DE062690121019890471E
:100010006C2802D045F0040514E045F002050DE01F
:1000200045F020050AE0626901210198904768289F
:1000300002D045F0080505E045F40065626901213C
:1000400001989047C4E9015765283DD019DC58282C
:100050007AD00CDC452837D004DC252826D041286E
:1000600031D131E046282FD047282CD12CE05B2815
:1000700077D0612828D063287CD0642823D15AE027
:10008000D0E06F2848D008DC66281DD067281BD038
:10009000692821D06E2816D127E0702845D0732812
:1000A00068D0752847D078280DD14DE0A1690B980C
:1000B0008847054625283FF469AFE1690B988847D2
:1000C0006D1C3FF46AAFB3E023466A466FF001004F
:1000D0000B99FFF735FA9EE045F040006060A807F5
:1000E00023464FF0000236D43EE0E8077FF447AFE6
:1000F0002068011D21600068290501D506701BE7F5
:10010000290701D5068017E7A90703D5F117C0E92C
:10011000006111E706600FE745F040006060A80746
:1001200023464FF0080216D41EE040F60E0125EAE1
:100130000100606016E045F040006060A8072346BB
:100140004FF00A0207D40FE045F040006060A807B6
:1001500008D5234610226FF001000B99AFF3008001
:1001600059E007E0234610226FF001000B99AFF32E
:10017000008050E04FF000094F464B46632802D004
:100180005B2806D040E0E80601D40120A0600127EA
:100190003AE062690121019890475E2805D14FF04D
:1001A00001096269494601989047216939B90021DE
:1001B0000A46534643F82120491C0829FADBB0B30C
:1001C000216969B9C11700EBD16253110AEB8301B0
:1001D00022F01F02821A01200B68904003430B603B
:1001E00062690121019890475D28E8D1B9F1000FBB
:1001F00009D00020514651F82020D24341F8202058
:10020000401C0828F7DB02AB224600976FF0010084
:100210000B99AFF3008000280CDA401C08D1BBF129
:10022000000F05D04FF0FF300DB000F00DB8FFE724
:100230004046F9E7E90701D108F1010806444FF00B
:10024000000B79E6CCCCCC0C30BCBDE8C08F2DE9DE
:10025000F05F82460078002715468B460AF10104BC
:10026000B946302801D09DB113E014F8010B0127E5
:10027000782803D0582801D045B10AE00DB1102DDF
:1002800007D10027102514F8010B02E0082500E033
:100290000A250026B0460EE005FB080005FB06F126
:1002A000012701EB10461FFA80F8B6F5803F00D316
:1002B000B94614F8010B294600F052F80028EBDA91
:1002C000BBF1000F05D00FB1641E00E05446CBF81F
:1002D0000040B9F1000F06D005F0C8F80221016016
:1002E000C81E00F003B848EA0640FAE730BCBDE893
:1002F000C09F0029A8BF7047401C490008BF20F0DC
:100300000100704710B4B0FA80FC00FA0CF050EA1B
:10031000010404BF10BC704749B1CCF1200421FA9C
:1003200004F411FA0CF118BF012121430843A3EB97
:100330000C01CB1D4FEA00614FEA102042BF0020A4
:1003400010BC704700EBC35010440029A4BF10BC80
:100350007047401C490008BF20F0010010BC7047E6
:100360003A2800D2303820F02002412A01D3A2F1ED
:100370003700884201D34FF0FF30704710B5017845
:100380004FF6FF72407802EA0121084480B2FFF77D
:10039000E7FA9FED051B53EC112BFFF772FAFFF7FD
:1003A000ECFA80B210BD0000333333333333F33F04
:1003B00008B54FF6FF71024600910223472102481B
:1003C00001F0F8FA08BD00004C03002001B582B02E
:1003D0004FF6FF700090012302AA4621014801F068
:1003E0007FFB0EBD4C030020FEE730B50346002224
:1003F00008463124995C48400021050602D584EA6C
:10040000400000E04000491CC9B2C0B20829F4D342
:10041000521CD2B2022AEDD330BD0000014800F0D8
:1004200037BF0000940A0020014800F031BF0000EF
:100430004C0A002030B590F8444004F01C0501241B
:10044000AC40056C6C60046863608368102B0368C3
:1004500003D099600068C26030BD9A600068C160D6
:1004600030BD70474FF47A7302A204A104A000F0DB
:100470000BB800004552524F520000004F4B000095
:10048000415445300D0A00002DE9F0478946804669
:100490001E4617464FF496612648FEF756FF404623
:1004A000FEF770FF82B24FF6FF734146224802F01A
:1004B0008DFF414621A004F08DFF234D00243246DC
:1004C0001C49286807F062FF012808D01FA004F02B
:1004D00081FF0320641C022CF1DBBDE8F087286853
:1004E00007F09CFA13491FA004F074FF20A14046B6
:1004F000FEF736FF88B1214841880E48801F084426
:100500004946FEF72DFF08B11DA00DE03946094808
:10051000FEF726FF60B10120DCE749460548FEF7FB
:100520001FFF0028F2D01AA004F054FF0020D4E7E7
:100530000620CFE7BCA800204C08002041545F53A0
:10054000454E443A2573000024000020CFFBB7D16C
:100550004154CFFBCFA2B6D3C1D0B3ACCAB10D0AC0
:100560000000000041545F5245563A25730D0A00C1
:1005700041542B514652454144000000980300204D
:1005800042494E2D41434B204F4B0D0A00000000C5
:1005900041542D41434B204F4B0D0A0038B50024E8
:1005A000009400F0BBF8632808D04FF47A730BA2D4
:1005B0000CA10EA0FFF768FF08B12C2038BD6B46D8
:1005C0000DA20EA10F48009400F0B0FD20B16846C6
:1005D000FFF7D5F8C0B238BD642038BD4552524F40
:1005E000520000002B4350415300000041542B4364
:1005F0005041530D0A0000000D0A00002B435041EA
:10060000533A2000BCA800202DE9F84F9A469346A3
:100610000D4680464FF47A773B4617A21AA11CA0DC
:10062000DDF82890FFF730FF1D4C00262B46266092
:1006300042461CA1204604F0F5FE3B4612A21FA133
:100640002046FFF721FF050005D020A004F0C2FEE0
:10065000284600F05FB8266053465A4621A110484C
:10066000CDF8009004F0DEFE3B4607A225A10C4821
:10067000FFF70AFF0546EBE72B514D54434C4F5310
:10068000453A20302C3000004552524F52000000B5
:1006900041542B514D54434C4F53453D300D0A00AE
:1006A0006CAD002041542B514D544F50454E3D30C0
:1006B0002C222573222C25640D0A00002B514D5449
:1006C0004F50454E3A20302C300000004D515454CC
:1006D000206F70656E204552524F522021212121FA
:1006E0000D0A000041542B514D54434F4E4E3D30A6
:1006F0002C222573222C222573222C222573220DD5
:100700000A0000002B514D54434F4E4E3A20302CDE
:10071000302C300018BCBDE8E08F0000F8B5002494
:100720004FF47A730FA211A112A00094FFF7ACFE50
:10073000050015D16B4612A212A11448009400F0D6
:10074000F5FC134E20B16846FFF719F8307000E051
:10075000347031780FA004F03DFE3078632800D06B
:100760002846F8BD4552524F520000002B435351CA
:100770000000000041542B4353510D0A00000000BB
:100780002C0000002B4353513A200000BCA800204D
:1007900034AE00204353513A25640D0A0000000096
:1007A00070B54FF47A730CA20DA10EA0FFF76CFE8A
:1007B00005000FD10E4C1421A01DFEF7C6FDA4F2BA
:1007C00076530CA21021A01D04F014FEA11D0AA056
:1007D00004F000FE284670BD4552524F5200000002
:1007E0004F4B000041542B47534E0D0A00000000B0
:1007F00034AE002025730000494D45493A25730D5C
:100800000A000000F0B507464FF47A75FFB02B469A
:1008100051A253A153A0FFF737FE2B464EA250A181
:1008200054A0FFF731FE2B464BA24DA158A0FFF775
:100830002BFE2B4648A24AA15EA0FFF725FE2B46C1
:1008400047A265A166A0FFF71FFE01280ED12B4627
:1008500041A243A165A0FFF717FE38B92B4640A27D
:100860005DA15FA0FFF710FE012865D06348002658
:1008700006633846FEF786FD0246604860A13030C8
:1008800004F0D0FD5D482B4633A263A13030FFF762
:10089000FBFD04005ED12B462FA231A13846FFF7A5
:1008A000F3FD040056D12B462BA25DA161A0FFF7FA
:1008B000EBFD04004ED12B4627A257A162A0FFF703
:1008C000E3FD4FF4FA716846FEF73FFD6B4663A205
:1008D00064A1674800F02AFC694666A004F07AFD2E
:1008E0002B461DA21EA11FA0FFF7CEFD04466846A1
:1008F00005F0A2FB050021D0002105F081FB5FA1DE
:1009000005F08CFB7D9602695FA17DA804F08AFD4D
:10091000284605F051FB284604F0ACFD7DA8FEF703
:100920002EFF3649C0B2F83108714979884211D991
:1009300056A004F04FFD42207FB0F0BD05F066FBED
:10094000014656A004F046FD284605F035FB284632
:1009500004F090FD2046EFE74552524F5200000050
:100960004F4B000041542B514854545053544F5056
:100970000D0A000041542B51485454504346473D02
:1009800022636F6E746578746964222C310D0A00DD
:1009900041542B51485454504346473D227265738D
:1009A000706F6E7365686561646572222C300D0A24
:1009B0000000000041542B5149435347503D312C16
:1009C000312C22434D4E4554222C22222C2222200F
:1009D0002C310D0A000000002B51494143543A00CC
:1009E00041542B51494143543F0D0A0041542B516E
:1009F000494143543D310D0A000000003CAD002048
:100A000041542B514854545055524C3D25642C317F
:100A100032300D0A00000000434F4E4E4543540053
:100A20002B51485454504745543A20302C323030E2
:100A30000000000041542B51485454504745543D48
:100A400038300D0A0000000041542B5148545450D6
:100A5000524541443D3230300D0A00000D0A4F4BE3
:100A600000000000434F4E4E4543540D0A00000065
:100A7000BCA8002025730D0A0000000062696E5FAB
:100A800076657273696F6E0025730000D3D0D0C293
:100A9000B0E6B1BE2E2E2E2E2E0D0A004572726FBC
:100AA00072206265666F72653A205B25735D0A008D
:100AB000F0B5054645489DB0002707632846FEF778
:100AC00061FC0246414842A1303004F0ABFC3F4893
:100AD0004FF47A76334644A245A13030FFF7D4FC78
:100AE00004006FD1334640A243A12846FFF7CCFC57
:100AF00008B142A063E033463BA247A14BA0FFF7F9
:100B0000C3FC08B14EA05AE064216846FEF71DFC04
:100B10006B4640A250A1554800F008FB6846FEF71E
:100B20002EFE2A4D81B2F83551A0698004F052FCA6
:100B30006888B0F5806F41D94FF4FA632AA250A1BA
:100B400054A0FFF7A1FC04003CD1334626A25AA1D1
:100B50005FA0FFF799FC040001D061A02BE019977A
:100B60001A9719AB2BA263A140481B9700F0DEFA3D
:100B700019A8FEF704FE87B26A88394661A004F01E
:100B800029FC6888B84215D1334617A21AA163A080
:100B9000FFF77AFC6548006807F0CCF8644800234A
:100BA0001A461946006807F0E3FA002007F036F904
:100BB000002407E05FA004F00DFC03E063A004F054
:100BC00009FC04241DB02046F0BD00003CAD00200F
:100BD00041542B514854545055524C3D25642C31AE
:100BE00032300D0A000000004552524F5200000002
:100BF000434F4E4E454354004F4B0000B7A2C6F042
:100C00004854545020C7EBC7F3CAA7B0DC20A3A1B7
:100C1000A3A1A3A10D0A00002B51485454504745ED
:100C2000543A20302C3230300000000041542B5117
:100C3000485454504745543D38300D0A00000000D8
:100C40004854545020C7EBC7F3D2ECB3A320A3A160
:100C5000A3A1A3A10D0A00002B51485454504745AD
:100C6000543A20302C3230302C000000BCA8002038
:100C7000CEC4BCFEB3A4B6C8CEAA25640D0A00003B
:100C80002B51485454505245414446494C453A2012
:100C90003000000041542B514854545052454144B7
:100CA00046494C453D225546533A6F74612E626960
:100CB0006E222C38300D0A002B51464C53543A20EA
:100CC000225546533A6F74612E62696E220000000D
:100CD00041542B51464C53543D222A220D0A000008
:100CE000C1D0BED9CEC4BCFED2ECB3A32E2E2E0DE5
:100CF0000A000000225546533A6F74612E62696EF5
:100D0000222C0000554653CEC4BCFEB3A4B6C8CEB8
:100D1000AA3A256420202025640D0A0041542B5155
:100D20004854545053544F500D0A00001C000020EA
:100D300030000020B1C8B6D4CEC4BCFEB3A4B6C83F
:100D4000D2ECB3A32E2E2E0D0A000000B9CCBCFEAF
:100D5000B0FCB9FDD0A12D2D2DC7EBBCECB2E9CE76
:100D6000C4BCFEA3A1A3A10D0A000000F8B506466D
:100D7000174800240D46046017462846FEF702FB7C
:100D800002281BD92846FEF7FDFA009033463A4662
:100D900010A10F4804F046FB4FF47A7315A217A177
:100DA0000B48FFF771FB04000BD14FF4FA6311A25B
:100DB00013A12846FFF768FB044602E013A004F0E5
:100DC00009FB214617A004F005FB2046F8BD0000F2
:100DD0006CAD002041542B514D5450554245583D67
:100DE000302C302C25642C302C222573222C2564A9
:100DF0000D0A00004552524F520000003E00000014
:100E00002B514D5450554245583A00006A736F6E4D
:100E1000CAFDBEDDD2ECB3A3A1A3A1A3A1A30D0A79
:100E2000000000002A2A2A2A2A2A2A256400000013
:100E300070B505460B4800220B4602602A460AA1FF
:100E400004F0F0FA4FF47A730DA20FA10548FFF7F2
:100E50001BFB040003D129460FA004F0BBFA204677
:100E600070BD00006CAD002041542B514D545355C2
:100E7000423D302C312C222573222C25640D0A0092
:100E80004552524F520000002B514D545355423A97
:100E900020302C3100000000B6A9D4C4202573B343
:100EA000C9B9A62E2E2E2E0D0A0000004FF47A731B
:100EB00002A205A107A0FFF7E7BA00002B435245A5
:100EC000473A20302C3200002B435245473A20301D
:100ED0002C31000041542B435245473F0D0A00007E
:100EE00042F2107302A204A104A0FFF7CDBA0000E1
:100EF0004552524F520000005244590041540D0ACD
:100F000000000000094801680A6842F020020A60F7
:100F100001680A6842F010020A600068102101624C
:100F20004FF496620249014802F080B94C08002053
:100F30009C03002070B586B000250C46064604953B
:100F400072B612481249086100F07EFB0120CDE91B
:100F50000050304600F01AF9CDE90204014622465D
:100F60000CA004F037FA04A9684600F099FA10B111
:100F700010A004F02FFA1648416816A004F02AFACF
:100F800000F002FB62B6012006B070BDF9800100DE
:100F900000200240CAB6B1F0B5C4B3F5CABCD2B3A2
:100FA000CAFDA3BA25642020C9BEB3FD256420D2A2
:100FB000B30D0A0048414C5F464C41534845785FA9
:100FC000457261736520204552524F520D0A000050
:100FD00040000020657272636F6465203D202578B3
:100FE0000A00000070470000124A117F12480129D0
:100FF00001D003290BD1036843F400630360036845
:1010000023F400630360036843F400730360022960
:1010100001D003290BD1016841F4805101600168BE
:1010200021F480510160016841F480610160002079
:10103000107770474000002000200240C10705489B
:1010400003D0416941F004014161416941F48031BB
:10105000416170470020024008494A69C0B222F449
:101060007E7242EAC0004861486940F0020048616F
:10107000486940F480304861704700000020024019
:10108000054910B54C6944F001044C610260BFF39E
:101090006F8F436010BD000000200240094A10B568
:1010A0005469402344F480245461EFF3108272B6F3
:1010B00010C910C05B1E13F0FF03F9D182F3108832
:1010C00010BD00000020024070B5054600F0BCFBDA
:1010D0000646134C08E0681C06D000F0B5FB801BE8
:1010E000A84201D3032070BD2069C003F3D4206956
:1010F0000C4908400CD00C494A6802434A60810FF1
:1011000001D0A169A161810000D02061012070BDE2
:101110002069C00701D001202061002070BD0000BF
:1011200000200240FAC30200400000202DE9F041F7
:101130001E4615460F46FEF713F904463846FEF7DD
:1011400021F920442946FEF70BF9054614B10DB1EB
:10115000AC4205D907A004F03DF90020BDE8F081BC
:101160003846FEF70FF901196A1A3046FEF7D4F82F
:101170000120F3E7737472696E67206E616D6520FC
:101180006E6F7420666F756E64210A00124910B587
:1011900009684FF48024CB431A04120C0BD00A04C4
:1011A0005FEA921202F10062824206D9A0F1006069
:1011B000C40A0AA00BE02246F4E71A04120C01D07C
:1011C00009048C09001BA0F10060C40A06A004F009
:1011D00001F9204610BD0000E075FF1F42616E6BF3
:1011E0002031200D0A00000042616E6B2032200D7C
:1011F0000A00000010B590F825100022022905D041
:101200000421C16380F82420012010BD01680B680F
:1012100023F00E030B6001680B6823F001030B60E1
:1012200090F84410046C01F01C03012101FA03F34F
:10123000636080F8251080F82420104610BD10B59A
:1012400090F825100024022903D00421C163012451
:101250001AE001680A6822F00E020A6001680A6852
:1012600022F001020A6090F84410036C01F01C02A5
:10127000012101FA02F25A6080F82510002180F85D
:101280002410816B01B18847204610BDC06B7047A8
:10129000F0B4016C0C6801680D6890F8442002F00D
:1012A0001C06042202FA06F3234211D06B070FD565
:1012B0000B689B0603D40B6823F004030B6090F8C3
:1012C000441001F01C018A40016C4A60016B1DE072
:1012D000022303FA06F727424FF0000C4FF00102F9
:1012E00018D0AF0716D50C68A40605D40C6824F0F6
:1012F0000A040C6080F8252090F8441001F01C01CD
:101300008B40016C4B6080F824C0C16A00291AD060
:10131000F0BC08470823B340234214D02B0712D552
:101320000B6823F00E030B6090F84410036C01F07F
:101330001C0102FA01F15960C26380F8252080F88F
:1013400024C0416BE2E7F0BC7047000070B568B1A3
:101350002B4C036814212B4AA34209D22A4C1C446B
:10136000B4FBF1F18900C0E910210BE0012070BD50
:10137000234C64421C44B4FBF1F1890041642049D0
:1013800008390164022180F825101C6847F6F071C5
:101390008C43D0E902152943D0E90456354329434B
:1013A00085692943C5692943056A29432143196091
:1013B0008168B1F5804F19D0036C0F21934202D19F
:1013C00052F8A83F02E00E4AA032136890F8444059
:1013D00004F01C04A1408B43136090F84430416832
:1013E00003F01C0399401368194311600021C16385
:1013F000012280F8252080F82410084670BD0000E6
:101400000804024000000240F8FFFDBF70B504462A
:1014100090F82400002501280CD0012084F8240035
:1014200094F825600020012E06D084F824000225BF
:10143000284670BD022070BD022684F82560E06356
:101440002068066826F0010606602046FEF7F2FFD7
:10145000206B00282068016802D041F00E0106E0F0
:1014600021F0040101602068016841F00A01016077
:101470002068016841F001010160D9E770B50446B8
:1014800000F0E2F90546601C02D0044800780444EC
:1014900000F0DAF9401BA042FAD370BD34000020FE
:1014A0002DE9F05F054634488946017801290CD0C2
:1014B0000127804607704CF2503B5846FFF704FE68
:1014C00006004FF0000A03D052E0022000F058B8A6
:1014D00051464046C8F804A0284C226892050ED513
:1014E000216821F4007121602168490505D5216832
:1014F00021F480612160032109E0077708E0226878
:10150000520504D5216821F4806121600221017710
:101510002868012807D04FF0FF31C9F8001040F2C9
:10152000FA3BAF681DE06868FFF788FD5846FFF793
:10153000CBFD0646606920F00400606116E0384685
:101540006968FFF789FD4CF25030FFF7BDFD0600DA
:10155000606920EA0B00606102D0C9F8007005E004
:101560007F1CD5E902010844B842E8D8FFF73CFDEA
:1015700088F800A03046A9E7400000200020024083
:1015800030BCBDE8C09F00000348416941F0004104
:101590004161002070470000002002402DE9FF5FFC
:1015A000254C0646904620789A4601280BD001200B
:1015B00020704CF2503B5846FFF786FD07004FF075
:1015C000000904D02AE0022004B000F039B84846EF
:1015D000C4F80490194D2968490504D5286820F4F9
:1015E000806028600220207726B1012E09D0022ECB
:1015F00007D00CE0424653460198FFF741FD012613
:1016000012E041460198FFF749FD022E0AD05846E4
:10161000FFF75AFD4FEA0007FFF7E6FC84F8009059
:101620003846D1E74FF480265846FFF74DFD074670
:101630006869B0436861EFE7400000200020024085
:1016400030BCBDE8C09F0000064900204A69002A5E
:1016500007DA054A8A60054A8A604969002900DA82
:10166000012070470020024023016745AB89EFCD80
:101670002DE9FC4FDFF894A1002301250AF1040BAA
:1016800003244FF00F0C0BF1040EB8E005FA03F63B
:1016900032406FD04F68012F05D0022F03D0112F99
:1016A00001D0122F17D1D0F808905F0004FA07F884
:1016B00029EA08090097D1F80C8008FA07F848EAE7
:1016C0000908C0F808804768B7430E79C6F30016CA
:1016D0009E403E434660C6684FEA430804FA08F756
:1016E000BE4301978F6807FA08F73743C7604E6813
:1016F000022E01D0122E13D1DE0800EB86060096D2
:10170000366A5F07FF0E0CFA07F926EA0906D1F8D8
:10171000109009FA07F949EA0609009EC6F82090D8
:101720000668019FBE430F7907F0030707FA08F721
:10173000374307604E68F60060D5354E376E47F088
:1017400001073766366E23F0030706F001060096A0
:10175000304E3E44B146B6689F074FEA17780CFA00
:1017600008F7BE43B0F1904F05D02B4FB84204D1DB
:10177000012712E042E000270FE0284FB84201D1D4
:1017800002270AE0264FB84201D1032705E0254F82
:10179000B84201D1042700E0072707FA08F73743CA
:1017A000C9F80870DAF800605746D1F8048096430B
:1017B0005FEAC83800D516433E60DBF800605F463C
:1017C000D1F8048096435FEA883800D516433E601E
:1017D000DEF800607746D1F8048096435FEAC828B7
:1017E00000D516433E60094F0C373E68D1F804809F
:1017F00096435FEA882800D516433E605B1C0A6862
:1018000032FA03F67FF442AF00F00EB80004014054
:101810000010024000000140000400480008004899
:10182000000C0048001000481CBCBDE8E08F426975
:1018300021EA02030A4043EA0241816170470AB18A
:10184000816170478162704701488068704700007D
:101850003400002090F84120202A24D190F8402024
:10186000012A20D0012280F84020242280F8412043
:101870000268136823F0010313600268136823F4FD
:1018800080531360026813680B43136001680A6891
:1018900042F001020A60202180F84110002180F806
:1018A0004010084670470220704790F84120202AD7
:1018B00022D190F84020012A1ED0012280F8402039
:1018C000242280F841200268136823F0010313608A
:1018D0000268136823F4706343EA01211160016810
:1018E0000A6842F001020A60202180F841100021BC
:1018F00080F84010084670470220704770B5040019
:1019000004D094F84100002510B106E0012070BD1C
:1019100084F84050204600F079F9242084F84100F2
:101920002068016821F0010101606068216820F0F1
:10193000706008612068816821F400418160E0687E
:101940000128A06807D040F4044021688860E0685E
:10195000022803D006E040F40040F6E721684FF487
:101960000060486020684168114A11434160206866
:10197000C16821F40041C160D4E904010843A169B0
:1019800040EA01202168C860D4E9070108432168C2
:1019900008602068016841F0010101606564202051
:1019A00084F84100256384F84250002070BD000097
:1019B000008000022DE9F84F044690F84100DDF860
:1019C00028A01F4690468B4620287ED194F84000E0
:1019D00001287AD0012084F84000FFF735FF064641
:1019E000012200901923D103204601F0B5FDE0BB90
:1019F000222084F84100102084F84200002565640C
:101A0000C4F8248067856563618D3148FF274FF0F6
:101A100080784FF00079FF2903D927853A46009056
:101A200039E0618D218500903AE05946204601F069
:101A30007DFD13E001F0BCFDB8B92068406A616A21
:101A40000870606A401C6062208D401E80B2208554
:101A5000618D491E6185618D01B168B1608D32462D
:101A6000002851462046E5D100E002E001F0E2FD09
:101A7000D0B1012000F030B853460022802120462A
:101A8000009601F069FD0028F3D1608DFF2804D98C
:101A900027853A4600954346C7E7608D2085009527
:101AA00094F828204B46C0E721682020C8612168AF
:101AB0004A68084B1A404A6084F8410084F8425052
:101AC00084F840500020D5E7FFE70220D2E700006D
:101AD0000024008000E800FE18BCBDE8E08F000094
:101AE0002DE9F84F044690F84100DDF828A01F4684
:101AF00090468B4620287ED194F8400001287AD069
:101B0000012084F84000FFF79FFE06460122009066
:101B10001923D103204601F01FFDE0BB212084F8EA
:101B20004100102084F8420000256564C4F8248038
:101B300067856563618D3148FF274FF080784FF0EE
:101B40000079FF2903D927853A46009039E0618D55
:101B5000218500903AE05946204601F0E7FC13E069
:101B600001F08EFDB8B9606A216800788862606A09
:101B7000401C6062608D401E6085208D401E80B2DA
:101B80002085618D01B168B1608D324600285146D3
:101B90002046E5D100E002E001F04CFDD0B101208B
:101BA00000F030B85346002280212046009601F014
:101BB000D3FC0028F3D1608DFF2804D927853A464D
:101BC00000954346C7E7608D2085009594F828204E
:101BD0004B46C0E721682020C86121684A68084B4D
:101BE0001A404A6084F8410084F8425084F840501A
:101BF0000020D5E7FFE70220D2E7000000200080A8
:101C000000E800FE18BCBDE8E08F000010B586B00B
:101C1000044614216846FDF798FB1649206888425F
:101C200026D1154CE06C40F00200E064E06C00F05E
:101C300002000590A06D40F40010A065A06D6946FB
:101C400000F400100590C0200090122001900120A7
:101C5000029003200390042004900848FFF708FD39
:101C6000A06D40F40010A065A06D00F40010059078
:101C700006B010BD005400400010024000040048AF
:101C80000248816802781144816070473400002066
:101C900010B50024032000F089F8002000F008F8B7
:101CA00008B1012401E000F03DF8204610BD00001D
:101CB00000B5014687B00022192000F057F819201E
:101CC00000F046F81348016E41F400610166006EB1
:101CD00005A900F400600690684600F0B5FA00F02F
:101CE000E5FA0D490D4AB0FBF1F10D48491E0260BD
:101CF000416040F2E7320021C0E90321816000F039
:101D000069FF10B1012007B000BD054800F094FF45
:101D1000F9E700000010024040420F00002C014093
:101D2000400B0020094808B5016E41F00101016631
:101D3000016E01F001010091816D41F080518165DA
:101D4000806D00F08050009008BD0000001002403F
:101D5000002809DB00F01F020121914040098000AA
:101D600000F1E020C0F8001170470000F0B40E4B05
:101D70001B680C46C3F30223C3F10705042D00D9E9
:101D80000425191D072901D2002300E0DB1E0126CE
:101D900006FA05F1491E214099409E40761E1640E4
:101DA0003143F0BC03F052BB0CED00E0064900F0FB
:101DB000070208684FF6FF03184040EA0220034A72
:101DC00010430860704700000CED00E00000FA05C9
:101DD000BFF34F8F05480168054A01F4E0611143E4
:101DE0000160BFF34F8F00BFFDE700000CED00E086
:101DF0000400FA051649B0F5007F0868C0F34120D9
:101E000009D0022805D0086820F4C06040F4806042
:101E10000860002070470128FBD0086820F4C060EB
:101E200040F4007008600B483222006850430A4AB0
:101E3000B0FBF2F0401C00E0401E4A69520501D59B
:101E40000028F9D148694005E3D503207047000018
:101E5000007000406000002040420F00024800680F
:101E600000F4C06070470000007000402DE9F84F9A
:101E7000044600270088A84D3E46000515D5606C35
:101E800060B1B0F5000F04D0B0F5400F2BD00127A2
:101E90000AE0E86840F48030E86024E00021201D7A
:101EA00002F032FB07001ED03E46206880033AD580
:101EB000A86D4FF00008C00009D4A86D40F0805014
:101EC000A865A86D4FF0010800F080500090DFF881
:101ED0004CA2DAF8001041F48071CAF80010FFF744
:101EE000B3FC814610E0D5F88800616C20F4400016
:101EF0000843C5F88800D8E7FFF7A6FCA0EB090067
:101F0000022801D9032705E0DAF80000C005F3D55F
:101F1000002F7DD04FEA0706B8F1000F03D0A86D5F
:101F200020F08050A8652078C00707D0D5F8880039
:101F3000216A20F003000843C5F888002078800754
:101F400007D5D5F88800616A20F00C000843C5F871
:101F500088002078400707D5D5F88800A16A20F0CE
:101F600030000843C5F888002078800607D5D5F8EA
:101F70008800E16A20F440600843C5F888002088A2
:101F8000800507D5D5F88800E16B20F44020084390
:101F9000C5F888002088400507D5D5F88800216C51
:101FA00020F440100843C5F888002078400607D583
:101FB000D5F88800216B20F440500843C5F888000C
:101FC0002078000607D5D5F88800616B20F44040E2
:101FD0000843C5F888002088C00507D5D5F88800D3
:101FE000A16B20F440300843C5F8880020684FF00A
:101FF000006700034FF0806850D5D5F88800A16CC9
:1020000020F040600843C5F88800A06CB84200E0AA
:1020100005E03BD1E86840F48010E8603EE0D5F888
:10202000900010F4407014D0A16D814211D0D5F809
:102030009000D5F8901020F4407041F48031C5F83C
:102040009010D5F8901021F48031C5F89010C5F8A3
:102050009000C00711D0FFF7F7FB074641F288391F
:1020600007E000BFFFF7F0FBC11B494501D903267C
:1020700052E7D5F890008007F4D5D5F89000A16D0F
:1020800020F440700843C5F8900045E7404505D16D
:102090000121201D02F038FA00B1064620684003F5
:1020A00017D5D5F88800E16C20F040600843C5F8EA
:1020B0008800E06CB84204D1E86840F48010E86021
:1020C00007E0404505D10121201D02F01DFA00B1B5
:1020D00006462088400411D5D5F88800216D20F0EF
:1020E00040500843C5F88800206DB0F1805F05D1ED
:1020F0000221201D02F008FA00B1064620880004E3
:1021000006D555F8880F616D20F08040084328609F
:10211000304600F005B8000000100240007000409A
:1021200018BCBDE8E08F00002DE9F0470F46050020
:1021300058D0404E306800F00700B84209D23068ED
:1021400020F0070038433060306800F00700B842E4
:1021500048D12878384CC0072CD06868032811D0A3
:10216000022812D0216898B1490500293ADAA168FD
:1021700021F003010143A160FFF766FB804641F2B5
:10218000883910E021688901EFE721688903ECE7CD
:102190008907EAE7FFF758FBA0EB0801494502D998
:1021A0000320BDE8F087A068696800F00C00B0EB80
:1021B000810FEFD12878800705D5A068A96820F0A5
:1021C000F0000843A060306800F00700B8420BD967
:1021D000306820F0070038433060306800F00700B6
:1021E000B84201D00120DCE72878400705D5A06877
:1021F000E96820F4E0600843A0602878000706D56D
:10220000A068296920F4605040EAC100A06000F095
:102210005FF8A168094AC1F30311515C01F01F0185
:10222000C8400749086007480068BDE8F047FFF765
:102230003FBD000000200240001002406C8B0108EE
:1022400060000020380000200F2202600C4A9368D2
:1022500003F003034360936803F0F0038360936823
:1022600003F4E063C36092684FF4E06303EAD202D0
:1022700002610448006800F0070008607047000031
:1022800000100240002002400548064900688968A5
:10229000054AC1F30221515C01F01F01C84070479B
:1022A0006000002000100240AC8B01080548064980
:1022B00000688968054AC1F3C221515C01F01F0121
:1022C000C84070476000002000100240AC8B01083D
:1022D00070B52549002318468A68CC6812F00C02B4
:1022E00004F00306214C4FEA640509D00C2A05D0FE
:1022F000042A32D0082A00D1284670BD012E10D100
:102300000B681B0704D4D1F89430C3F3032302E015
:102310000B68C3F30313164E56F82330DAB10C2AB8
:10232000EBD1C86800F00300022818D0032818D0A9
:102330001846CA68CB68C2F30212C3F306234343AC
:10234000521CB3FBF2F2C868C0F34160401C40006D
:10235000B2FBF0F070BD184670BD204670BD20463F
:10236000E7E72846E5E70000001002400024F400FB
:102370007C8B01082DE9F84304006FD0FE4DA8685E
:1023800000F00C06E86800F003072078C00664D56A
:1023900076B10C2E01D1012F0AD0A069002828683F
:1023A0007AD040F001002860FFF74EFA80465DE0E9
:1023B0002868800702D5A0690028DED0216A286835
:1023C000000703D5286800F0F00004E0D5F8940079
:1023D000F02202EA1010814216D9084602F02AF9CA
:1023E00000283BD1286840F0080028602868216A4E
:1023F00020F0F000084328606868E16920F47F401D
:1024000040EA0120686016E0286840F00800286073
:102410002868216A20F0F000084328606868E169B4
:1024200020F47F4040EA0120686026B9206A02F06B
:1024300001F90028D5D1FFF74BFFA968CF4AC1F3B6
:102440000311515C01F01F01C840CD490860CD481F
:102450000068FFF72DFC00287ED12EE0CAE000BF07
:10246000FFF7F2F9A0EB0800022876D82868800769
:10247000F6D5286840F0080028602868216A20F016
:10248000F000084328606868E16920F47F4040EA72
:102490000120686011E0FFE720F001002860FFF7ED
:1024A000D3F9804606E000BFFFF7CEF9A0EB0800A5
:1024B0000228DAD828688007F6D42078C00740D0F0
:1024C000082E18D00C2E01D1032F14D06068B0F55F
:1024D000803F17D0B0F5A02F286817D020F48030A7
:1024E0002860286820F4802028606068E0B1FFF749
:1024F000ABF9804614E02868800322D56068002884
:1025000078D01EE0286840F48030EDE740F4802069
:102510002860F7E7FFF798F9A0EB08006428A4D833
:1025200028688003F6D50CE0FFF78EF9804605E0B9
:10253000FFF78AF9A0EB0800642896D82868800382
:10254000F6D4207880073BD5042E11D00C2E01D173
:10255000022F0DD0E06801E0B6E1FFE00028286816
:102560001ED040F480702860FFF76EF907460CE03B
:10257000286840050CD5E0680028C1D008E000BFFD
:10258000FFF762F9C01B022893D828684005F7D5E9
:102590006868217C20F0FE4040EA016068600FE03E
:1025A00020F480702860FFF74FF9074605E000BF70
:1025B000FFF74AF9C01B0228B1D828684005F7D4B4
:1025C0002078000729D560690028D5F8940012D03A
:1025D00040F00100C5F89400FFF736F9074604E023
:1025E000FFF732F9C01B022899D8D5F8940080076C
:1025F000F6D512E02BE120F00100C5F89400FFF7BA
:1026000023F9074605E000BFFFF71EF9C01B0228AB
:1026100085D8D5F894008007F6D42078400766D591
:10262000A86D0027C00008D4A86D40F08050A865B0
:10263000A86D012700F08050009053480168C9053B
:1026400012D40168814641F480710160FFF7FCF803
:10265000804605E0FFF7F8F8A0EB080002287DD8D7
:10266000D9F80000C005F5D5A068012816D00528C6
:10267000D5F8900017D020F00100C5F89000D5F8EB
:10268000900020F0040000BFC5F89000A06841F25F
:102690008839C0B1FFF7D8F880460FE0D5F8900030
:1026A00040F00100F0E740F00400C5F89000F5E7C5
:1026B000FFF7CAF8A0EB080149454FD8D5F89000BC
:1026C0008007F5D50EE0FFF7BFF8804606E000BFB3
:1026D000FFF7BAF8A0EB080149453FD8D5F89000BC
:1026E0008007F5D41FB1A86D20F08050A865207830
:1026F000800628D5606A0028D5F8980012D040F0EE
:102700000100C5F89800FFF79FF8074605E000BFF5
:10271000FFF79AF8C01B022820D8D5F89800800748
:10272000F6D510E020F00100C5F89800FFF78CF80E
:10273000074604E0FFF788F8C01B02280ED8D5F83A
:1027400098008007F6D4A06AA8B1022824D00C2EE5
:102750007DD0286820F08070286000E0B3E0286811
:10276000000103D4E86820F00300E860E868074946
:102770000840E8600CE09FE0001002406C8B01080C
:10278000600000203800002000700040FFFFEEFED7
:10279000FFF75AF8044699E0E868E26A00F003019E
:1027A000914226D1216B00F070020901103991424B
:1027B0001FD1626B00F4FE41B1EB022F19D194F8E6
:1027C000382000F07841B1EBC26F12D1A18F00F434
:1027D000C00249084905A1F50011914209D194F8B8
:1027E000401000F0C06049084906A1F10071814223
:1027F0004BD00C2E6FD0286840016CD4286820F094
:1028000080702860FFF720F8064604E0FFF71CF808
:10281000801B022857D828688001F7D4F4E90B01FF
:102820006FF00F0202EB01110843218A520449089C
:1028300002EB4151A26841EA02210843217D4FF099
:102840007E42490802EB41610843217B00E042E0FF
:1028500040EAC160E968214A11400843E8602868FD
:1028600040F080702860E86840F08070E860FEF713
:10287000EBFF044605E000BFFEF7E6FF001B022861
:1028800021D828688001F7D523E02868800120D46A
:10289000286840F080702860E86840F08070E86048
:1028A000FEF7D2FF044604E0FEF7CEFF001B02282D
:1028B00009D828688001F7D50BE000BFFEF7C4FFF8
:1028C000001B022802D90320BDE8F8832868800194
:1028D000F4D40020F8E70120F6E700008C809D0189
:1028E00070B5040009D0606A002540B125616561BA
:1028F000A56294F85D0040B10CE0012070BD6068F5
:10290000B0F5827FF4D0E561F2E784F85C502046B0
:1029100000F056F8022084F85D002068016821F07C
:1029200040010160E1684FF4E062914201D900206A
:1029300001E04FF48050B1F5706F02D0914200D0A9
:10294000A562A188228901F4827102F40442114334
:10295000227C02F002021143227D02F001021143A7
:10296000228B02F400721143227F02F038021143DD
:1029700094F8202002F080021143228D02F40052CC
:10298000114322681160A169042202EA114194F8FE
:10299000242000F4805002F01002114394F83420F7
:1029A00002F008021143A28902F47062114301434C
:1029B000206841602566012084F85D00002070BD1C
:1029C000F0B587B0044614216846FCF7BEFC1849F0
:1029D000206888422AD11748816D41F48041816581
:1029E000816D01F480410591C16C41F00401C16425
:1029F000C16C01F004010591C16C41F00201C16498
:102A0000C06C022400F00200059008200025032677
:102A100005278DE8F10069460748FEF729FE2003E7
:102A20008DE8F10069460548FEF722FE07B0F0BDCB
:102A30000038004000100240000800480004004830
:102A40002DE9F84F044690F85C0000271D46164615
:102A5000894601280DD04FF0010B84F85CB0FEF7D9
:102A6000F3FE804694F85D00BA46012804D00227A0
:102A7000A4E0022000F0A8B8B9F1000F74D0002E35
:102A800072D0032084F85D00C4F860A0C4F83890C8
:102A9000A687E687C4F840A0A4F844A0A4F846A0FE
:102AA000C4F850A0C4F84CA0A068B0F5004F09D1FC
:102AB0002068016821F0400101602068016841F44C
:102AC0008041016020680168490603D4016841F033
:102AD00040010160E068B0F5E06F606823D908B19B
:102AE000012E1CD1A06B21680088C86006E0206818
:102AF0008168890709D5A16B0988C160A06B801C1A
:102B0000A063E08F401EE08709E0FEF79DFEA0EB8A
:102B10000800A84202D3681C01D046E0ADB3E08FA4
:102B20000028E4D136E008B1012E30D1E08F012831
:102B3000A06B03D921680088C8600FE02168007885
:102B4000087314E0E08722E020688168890714D5C3
:102B5000E18F0129A16B08D90988C160A06B801C95
:102B6000A063E08F801EEDE727E009780173A06B7A
:102B7000401CA063E08F401EE4E7FEF765FEA0EB7B
:102B80000800A84202D3681C01D00EE06DB1E08FAE
:102B90000028D9D142462946204601F003FE08B15B
:102BA00020202066A06810B105E0032706E0206819
:102BB000C16880680090206E00B1012784F85DB084
:102BC00084F85CA0384655E718BCBDE8E08F704734
:102BD0007047704710B5040003D094F83D0010B161
:102BE00007E0012010BD002084F83C00204600F0E2
:102BF00022F8022084F83D00211D206802F04AF9E5
:102C0000012084F8480084F83E0084F83F0084F8EE
:102C1000400084F8410084F8420084F8430084F8BE
:102C2000440084F8450084F8460084F8470084F89E
:102C30003D00002010BD704790F83D10012901D0E3
:102C400001207047022180F83D100168CA6842F0F7
:102C50000102CA6000680B49884205D0B0F1804F7C
:102C600002D00949884207D18168084A11400629E3
:102C700006D0B1F5803F03D0016841F00101016049
:102C800000207047002C0140004001400700010077
:102C9000704770B50446006801694FF00005C943EC
:102CA000890715D4C168C943890711D4E91E016198
:102CB00001202077206880698007204602D0FFF736
:102CC000E7FF04E000F0A7F8204600F0A5F825771C
:102CD00020680169C943490717D4C168C943490736
:102CE00013D46FF00401016102202077206880690D
:102CF00010F4407F204602D0FFF7CAFF04E000F046
:102D00008AF8204600F088F8257720680169C943D1
:102D1000090716D4C168C943090712D46FF0080126
:102D20000161042020772068C0698007204602D016
:102D3000FFF7AEFF04E000F06EF8204600F06CF8FC
:102D4000257720680169C943C90617D4C168C943FA
:102D5000C90613D46FF010010161082020772068A4
:102D6000C06910F4407F204602D0FFF791FF04E0D5
:102D700000F051F8204600F04FF8257720680169EF
:102D8000C943C90708D1C168C943C90704D1891E0D
:102D90000161204600F042F820680169C943090634
:102DA00009D4C168C943090605D46FF080010161E7
:102DB0002046FFF70DFF20680169C943C90509D402
:102DC000C168C943090605D46FF4807101612046CA
:102DD000FFF7FDFE20680169C943490609D4C168AF
:102DE000C943490605D46FF040010161204600F057
:102DF0001FF820680169C94389060BD4C168C9431B
:102E0000890607D46FF0200101612046BDE87040BB
:102E1000FFF7DFBE70BD70477047000000680349D0
:102E2000884201D1FEF72CBF70470000002C014002
:102E30007047704770B5416F0446856F00688268BF
:102E40004FF01006120612D5212910D1816821F009
:102E500080018160A06E38B1FEF7CCF920B1A06E80
:102E6000FEF714FA20281BD0204602F039F920681A
:102E70008168490612D5222D10D1816821F04001C8
:102E80008160E06E38B1FEF7B5F920B1E06EFEF773
:102E9000FDF9202804D0204602F013F9002070BD6F
:102EA000E667032070BD70472DE9F04102680446D3
:102EB000D0691168936840F60F0528424FF000056D
:102EC00005D186067BD58E0679D5216E88E04D4FDB
:102ED00003F001060F40374371D0C70707D0CF0575
:102EE00005D501271762E26F42F00102E26782070F
:102EF00008D5DA0706D0276802223A62E26F42F06C
:102F00000402E267420708D5DA0706D023680422E4
:102F10001A62E26F42F00202E26702070AD501F08C
:102F20002002324306D0236808221A62E26F42F080
:102F30000802E267020509D54A0107D523684FF464
:102F400000621A62E26F42F02002E267E26F002A3A
:102F50002ED0800605D5880603D5216E09B12046FE
:102F60008847E06F21688968490602D410F0280F6D
:102F700020D0204602F0A5F820688168490614D5C3
:102F8000816821F040018160E06E70B11E4981636B
:102F9000E06EFEF754F900280AD0E06E816B00E085
:102FA0002046BDE8F041084709E02046FFF77BFFD7
:102FB000BDE8F0812046FFF776FFE567F8E7C60237
:102FC00009D55B0207D54FF4801010622046BDE89A
:102FD000F041FFF72EBF030605D50B0603D5616E42
:102FE0000029DDD1E4E74006E2D54806E0D51168C6
:102FF000204621F04001116020216167656600F0E4
:1030000040FAD5E7200100042150010810B5040062
:1030100002D0606F10B107E0012010BD002084F8DD
:103020007000204600F026F82420606720680168C0
:1030300021F001010160204602F05AF80128ECD08D
:10304000606A10B1204601F05BFF2068416821F4FE
:10305000904141602068816821F02A0181602068E8
:10306000016841F0010101602046BDE8104001F017
:10307000ABBF00002DE9F04786B005461421684635
:10308000FCF763F9604BD5F800C000245F490320CA
:1030900002265F4A4FF080094FF4405A9C4534D1D4
:1030A000CB6D43F00103CB65CB6D03F001030593BA
:1030B000CB6C43F00403CB64C96CCDE90006CDE9C9
:1030C000024001F004010820CDE9040169461046E0
:1030D000FEF7CEFA504E4F4830600420C6E9010496
:1030E000C6E903497461B461C6E9074A3046FEF790
:1030F0002DF908B1FDF776FFEE6600220521462086
:10310000B562FEF733FE462027E0DFF81081072383
:103110004FF09047C44525D10A6E42F480420A66BA
:103120000A6E02F480420592CA6C42F00102CA643F
:10313000C96C029401F0010105914FF4C061CDE921
:103140000016CDE9030369463846FEF791FA0022DE
:1031500011462520FEF70AFE2520FEF7F9FD06B0F0
:10316000BDE8F087DFF8B880C4451AD18A6D42F413
:1031700000328A658A6D02F400320592CA6C42F010
:103180000102CA64C96C029401F0010105910C218D
:10319000CDE90016CDE9030369463846FEF768FA23
:1031A000DDE7204FBC45DAD18F6D47F480278F656E
:1031B0008F6D07F480270597CF6C47F00407CF6425
:1031C000C96C029401F0040105913021CDE900168B
:1031D000CDE9030369461046FEF74AFA0E4F12483E
:1031E00048373860C7E90164C7E903497C61BC61BD
:1031F000C7E9074A3846FEF7A9F808B1FDF7F2FE1D
:10320000EF66BD62ABE700000080004000100240A6
:1032100000080048800402404C0A002000380140A9
:1032200000440040004800403000024070B50446B1
:10323000806F20283FD149B342B394F87000012831
:1032400039D0012084F870006165A4F85820002569
:10325000E5672220A067E06ED0B11849C162E16E37
:10326000174813460863E16E16484863E06E8563AD
:10327000666D216832462431E06EFEF7C7F838B13A
:103280001020E06784F8705020206067012070BD36
:1032900084F870502068016841F4807101602068F2
:1032A000816841F0010181602068816841F040013E
:1032B0008160002070BD022070BD00007D500108BB
:1032C000B95001083550010838B501210091006856
:1032D000184988422CD1184C18A0618802F07AF85D
:1032E0001CA1201DFCF73CF84FF000036A4604F1D6
:1032F000040158B11A48006804F0EAFF10B101282F
:1033000002D010E017A00CE01DA00AE022480068DF
:1033100004F0DEFF10B1012802D004E01FA000E09D
:1033200024A002F057F84FF49661201DFCF70DF829
:1033300038BD0000008000409803002041542D4912
:10334000444C452D2D2D2D2D2D2D2D6C656E3A25A2
:10335000640D0A002B514D545245435600000000A5
:103360002C000020B6A9D4C4CFFBCFA2BDD3CAD5B0
:10337000B6D3C1D0D2D1C2FA2E2E2E2E2E0D0A00D7
:10338000B6A9D4C4CFFBCFA2BDD3CAD5C8EBB6D3A0
:10339000B3C9B9A60D0A0000240000204154BDD3D2
:1033A000CAD5B6D3C1D0D2D1C2FA2E2E2E2E2E0D12
:1033B0000A0000004154BDD3CAD5C8EBB6D3B3C987
:1033C000B9A60D0A00000000704700002DE9F8437F
:1033D0000446406F1F4616460D4620284FD1CDB1FA
:1033E000C6B194F87000012849D0012084F870001B
:1033F0004FF00008C4F87C8021206067FEF724FAB3
:10340000A4F850608146A4F85260A068B0F5805FCF
:1034100003D004E00120BDE8F883206928B12E46DE
:103420005FF0000584F8708010E00026FAE7802144
:10343000204601F05FFFB8B9C6B116F8010B21684C
:103440000885B4F85200401EA4F85200B4F85200A7
:103450004B464FF0000200970028E8D14FF04001A2
:10346000204601F047FF30B10320D4E735F8020BC6
:10347000C0F30800E3E7202060670020CBE70220CC
:10348000C9E77047FEE701688A69D243920701D411
:1034900000228A6200688169C943C90703D0816933
:1034A00041F00101816170472DE9F0410446006857
:1034B00090460E468069C043C00633D400252027BD
:1034C00020688069C043800615D5701CF8D0FEF7CF
:1034D000BBF9A0EB0800B04201D8002EF0D154F89F
:1034E000440F40F0200044F804096770A57025706F
:1034F0000120BDE8F08121681020C8612068C76103
:103500002046FFF7C0FF54F8440B4168064A1140BB
:103510004160206840F0040044F820096777A577EF
:103520002577E5E70020E4E700E800FEF0B5056850
:10353000059C68684FF48066064FC1F3090106EAEE
:10354000545641EA02413E431943B04321430843E4
:103550006860F0BDFF63FF032DE9F0411D4617468B
:103560000E460446DDF8188008E0681C06D0FEF719
:103570006BF9A0EB0800A8420BD855B12068806910
:1035800036EA000012D00020B842EED00020BDE89C
:10359000F08154F8440F40F0200044F80409202042
:1035A00060700020A07020700120F0E70120EBE7A0
:1035B0002DE9F041002690460F460446202525E0DF
:1035C000424639462046FFF76FFF78BB2068806986
:1035D000C043800613D420688169C943490701D4D8
:1035E000218DC1B9C56154F8440B4168104A11409E
:1035F000416044F820696577A677267716E0FEF7E4
:1036000023F9A0EB0800B84208D83FB120688069D0
:10361000C0434007D4D40020BDE8F08154F8440FE3
:1036200040F0200044F80409657026700120F3E79B
:1036300000E800FE70B516460D4604460DE0324621
:1036400029462046FFF730FF08B1012070BDFEF784
:10365000FBF8801BA84207D835B120688069C043B9
:103660008006ECD4002070BD54F8440F40F02000D8
:1036700044F80409202060700020A0702070E4E766
:1036800070B516460D4604460FE0324629462046E0
:10369000FFF70AFF08B1012070BD681C05D0FEF7D6
:1036A000D3F8801BA84207D835B120688069C04391
:1036B0008007EAD4002070BD54F8440F40F0200089
:1036C00044F80409202060700020A0702070E2E718
:1036D0002DE9F04107461C4615460E462A2000F00B
:1036E00071FB380A00F07CFBF8B200F079FB280A85
:1036F00000F076FBE8B200F073FB2B2000F062FBD9
:10370000300A00F06DFBF0B200F06AFB200A00F016
:1037100067FBE0B200F064FBBDE8F0412C2000F054
:1037200051BB000070B5040AC5B2EF2300211A4650
:103730000846FFF7CDFF0F4900204FF4107200BF7D
:1037400001F8104001EB4003401C80B25D709042D4
:10375000F6D3012240210848FEF771F800244FF407
:1037600090652946034800F091FA641CA4B2642CC9
:10377000F7D370BD4EAE0020000800480122D103EF
:103780000148FEF75CB80000000400482DE9FF4F37
:1037900007460320A0EB420000240FFA80F883B014
:1037A0000E4615B2B81A72D4B818F0286FD8B01AED
:1037B0006DD4B018F0286AD867E000BFA6EB040902
:1037C000A7EB050A1FFA89F11FFA8AF0069A00F0A2
:1037D000E9F8781901901FFA89F180B2069A00F091
:1037E000E1F8701981B2A7EB040B00901FFA8BF07F
:1037F000069A00F0D7F81FFA89F11FFA8AF0069AA4
:1038000000F0D0F8A6EB05091FFA89F11FFA8BF03A
:10381000069A00F0C7F8019806EB040B1FFA8BF12B
:1038200080B2069A00F0BEF81FFA89F107EB04098E
:103830001FFA89F0069A00F0B5F80098069A81B24E
:103840001FFA89F000F0AEF81FFA8BF11FFA8AF028
:10385000069A00F0A7F8641C24B2B8F1000F05DA4C
:1038600008EB8400801D0FFA80F807E0611B08EB6D
:1038700081000A306D1E0FFA80F82DB2701981B2E6
:10388000381980B2069A00F08DF8AC4296DD07B088
:1038900000F000B830BCBDE8C08F00002DE9FE4F3D
:1038A0000024151AA346A246A146A04627469942DF
:1038B00020D1FFF70DFF0C980C99020A3348C9B2CA
:1038C00007E000BF00F8142000EB4403641C5970AB
:1038D000A4B2A542F6DC012240212D48FDF7AFFF3E
:1038E0004FF6FF7000EA450103B0284800F052B8D7
:1038F00000F0CCB92EB25A1A15B24FF0FF32002E9A
:1039000002DD4FF0010B04E003D0C6F10003934643
:103910001EB2002D02DD4FF0010A04E003D09246F2
:10392000C5F1000215B2AE4201DDB4B200E0ACB2A6
:10393000CDE90010601C029022E000BFDDE900101C
:103940000C9A00F02FF808EB06001FFA80F8A0454B
:1039500008D9A8EB040001991FFA80F801EB0B00CD
:1039600080B20190781987B2A74205D9381B87B277
:103970000098504480B2009009F101001FFA80F9CC
:1039800002998945DAD900F00AB800004EAE00204D
:103990000008004830BCBDE8C04FFFF7A9BF1EBCFF
:1039A000BDE8E08F10B514460B460246FFF790FEC7
:1039B0002046BDE8104000F0F1B900002DE9F047C5
:1039C000141A5F1A641C7F1C7C43002564004FF4AA
:1039D0009068089E444502D9A4F590654446FFF7D7
:1039E00077FE370ADFF84C90DFF84CA0F6B20020E3
:1039F000494606E001F8107001EB4002401C567089
:103A000080B2B0EB540FF5D3012240215046FDF7B0
:103A100016FFA1B2074800F039F9002D07D045453F
:103A200002D9A5F59065E2E72C460025DFE7BDE861
:103A3000F08700004EAE0020000800482DE9F0415C
:103A400086B014216846FBF780FC2948C16C41F020
:103A50000401C164C16C01F004010591C16C41F025
:103A60008001C164C16C01F080010591C16C41F01D
:103A70000201C164C06C1F4F00F002004FF400450A
:103A80000590002229463846FDF7D9FEDFF8688008
:103A90000022C0214046FDF7D2FE012600240095F9
:103AA000CDE90164694638460394FDF7E1FDC02085
:103AB0000090CDE90164694640460394FDF7D8FDC6
:103AC000002229463846FDF7BAFE002280214046F2
:103AD000FDF7B5FE6420FDF7D1FC012280214046B0
:103AE000FDF7ADFE00F020FB06B0BDE8F081000060
:103AF00000100240000400480008004810B5FFF71D
:103B00009DFF7820FDF7BAFC112000F05BF97820CA
:103B1000FDF7B4FC362000F055F9002000F060F904
:103B20003A2000F04FF9652000F05AF9B22000F079
:103B300049F90C2000F054F90C2000F051F9002054
:103B400000F04EF9332000F04BF9332000F048F933
:103B5000B72000F037F9722000F042F9BB2000F0E6
:103B600031F93D2000F03CF9C02000F02BF92C2069
:103B700000F036F9C22000F025F9012000F030F9FC
:103B8000C32000F01FF9192000F02AF9C42000F02A
:103B900019F9202000F024F9C62000F013F90120C3
:103BA00000F01EF9D02000F00DF9A42000F018F963
:103BB000A12000F015F9E02000F004F9D02000F079
:103BC0000FF9042000F00CF90D2000F009F9112084
:103BD00000F006F9132000F003F92B2000F000F9A3
:103BE0003F2000F0FDF8542000F0FAF84C2000F0DF
:103BF000F7F8182000F0F4F80D2000F0F1F80B2091
:103C000000F0EEF81F2000F0EBF8232000F0E8F8B9
:103C1000E12000F0D7F8D02000F0E2F8042000F016
:103C2000DFF80C2000F0DCF8112000F0D9F81320A8
:103C300000F0D6F82C2000F0D3F83F2000F0D0F8A8
:103C4000442000F0CDF8512000F0CAF82F2000F0F9
:103C5000C7F81F2000F0C4F81F2000F0C1F8202092
:103C600000F0BEF8232000F0BBF8212000F0AAF8F5
:103C7000292000F0A7F8EF2300211A460846FFF795
:103C800027FDBDE810400020FFF74CBD00F080BDCF
:103C90002DE9F05F1646DDE90AB5F0220024A2EB1B
:103CA00055029A4682423FD3C5F1F0028A423BDB7D
:103CB0004A19521E93B200EB5502521E92B2FFF700
:103CC00007FD203EF0B2102D16D0202D14D00C2D63
:103CD00012D0182D28D11C4900EB40004FF03009BC
:103CE00001EB0018E00718F804501FD00427002645
:103CF00028061DD558461CE0144900EB40004FF043
:103D00000C0801EB800700263D5D280601D55846CA
:103D100000E0504600F042F86806050E761C062EBC
:103D2000F3DB641C4445EEDB00F012B80827DEE745
:103D3000504600F033F86806050E761CBE42D7DB0D
:103D4000641C4C45CEDBEFE728900108B48B0108DA
:103D500030BCBDE8C09F2DE9FC470446DDE90B8778
:103D600010191D468A46C6B2DDF828900CE0B44210
:103D70000FD2CDE900874B4651462046FFF788FF1A
:103D800004EB570084B26D1C2A78A2F120005E2853
:103D9000EDD900F000B80CBCBDE8F08708B50021F3
:103DA0000091010A8DF800108DF8010001224021D8
:103DB0000348FDF744FD02216846FFF767FF08BD91
:103DC0000008004801B5002240210448FDF737FDF6
:103DD00001216846FFF75AFF08BD000000080048AF
:103DE00001B5012240210448FDF729FD0121684663
:103DF000FFF74CFF08BD00000008004870B5134CE9
:103E00002068C169124DC943C90613D400216980D5
:103E1000102101622046FFF70DF82068C169808CEF
:103E20000C480068406880B2C0F596606880204603
:103E3000FFF74AFA0548FFF737F8291DBDE870403B
:103E40004FF496620148FFF7F1B900004C080020DA
:103E5000980300204C0A0020114808B5816C41F0FD
:103E600002018164816C01F002010091816C41F0DA
:103E700001018164806C002200F001000090114675
:103E80000D20FDF773FF0D20FDF762FF00220521D5
:103E90004520FDF76BFFBDE808404520FDF758BF02
:103EA0000010024030B5B1B000202F9030900121B9
:103EB0002FA802F0EEFB394C394D0DF18C0C20622D
:103EC00095E80F008CE80F00002123A802F0CEFB3C
:103ED0001035606195E80F000DF19C0C103D8CE8E9
:103EE0000F00002127A802F0C1FB2035A06195E852
:103EF0000F002BAD85E80F0000212BA802F0B6FBC8
:103F0000E06100224FF49661022004F095F86061B0
:103F10000022C821032004F08FF8E0610022C821AC
:103F2000052004F089F81E49A0611C223031684642
:103F3000FBF7F2F90021684602F0CAFB184920603D
:103F40001C224C3107A8FBF7E7F9002107A802F073
:103F5000BFFB134960601C2268310EA8FBF7DCF937
:103F600000210EA802F0B4FB0D49A0601C22843190
:103F700015A8FBF7D1F9002115A802F0A9FB084903
:103F8000E0601C22A0311CA8FBF7C6F900211CA888
:103F900002F09EFB206131B030BD00001000002017
:103FA000B08A01082DE9F04186B014216846FBF77C
:103FB000CCF93548C16C41F00401C164C16C01F019
:103FC00004010591C16C41F08001C164C16C01F034
:103FD00080010591C16C41F00101C164C16C01F027
:103FE00001010591C16C41F00201C164C06C274F11
:103FF00000F00200059000224FF403513846FDF70F
:104000001EFC4FF09046002201213046FDF717FCC0
:10401000DFF87C8000224FF401414046FDF70FFCA1
:104020004FF40050009001250024CDE90154694669
:1040300038460394FDF71CFB0095CDE90154694611
:1040400030460394FDF714FBE8030326CDE9000591
:10405000CDE9024669464046FDF70AFBC020CDE99E
:104060000005CDE9024669463846FDF701FB280206
:104070000090CDE90154694640460394FDF7F8FAF3
:1040800006B0BDE8F08100000010024000080048C2
:1040900000040048134810B51149016012494160FD
:1040A00000210122C0E90212016141618161C16107
:1040B0000162FDF723FC08B1FCF794FF00210948D9
:1040C000FDF7C8FB08B1FCF78DFF00210548FDF79F
:1040D000ECFB002803D0BDE81040FCF783BF10BD07
:1040E000005400404C030020EB9B90000D4810B59D
:1040F0000B4901604FF4E1314160002181600C22E5
:10410000C160C0E90412816101624162FEF77EFF75
:10411000002803D0BDE81040FCF764BF10BD0000CC
:10412000008000404C080020124810B51049016082
:104130004FF48271416000214FF4E062C0E9021245
:1041400002220261012242615202C0E9062101629B
:1041500007224162C0E90A1201634163FEF7C0FB16
:10416000002803D0BDE81040FCF73CBF10BD0000A4
:1041700000380040DC0A00200D4810B50B490160F2
:104180004FF4E1314160002181600C22C160C0E93F
:1041900004128161C16101624162FEF737FF0028AC
:1041A00003D0BDE81040FCF71DBF10BD0038014032
:1041B000CC0800200D4810B50B4901604FF4E131E7
:1041C0004160002181600C22C160C0E9041281615C
:1041D000C16101624162FEF719FF002803D0BDE80A
:1041E0001040FCF7FFBE10BD004400404C09002009
:1041F0000D4810B50B4901604FF4E13141600021D9
:1042000081600C22C160C0E904128161C161016258
:104210004162FEF7FBFE002803D0BDE81040FCF72A
:10422000E1BE10BD00480040CC090020FEE7704709
:104230002DE9FC5F4FF4806000240190264650A0D9
:1042400001F0C8F85948006803F0E8FD58480068D4
:1042500003F0E4FD57A001F0BDF82D215B48FCF709
:1042600069FE5B4A5188C1F309005FEA00080BD080
:10427000012000EB912081460246434655A001F003
:10428000A9F84FF0000B02E0880AF4E744B94FF4B4
:10429000FA6358A259A15CA0FCF7F6F8012823D0D4
:1042A0005F4D5F462246C5F800B05EA1284601F08A
:1042B000B9F84FF47A7A53464EA25FA12846FCF72C
:1042C000E3F80028E2D12F605CA12846019A01F0B2
:1042D000A9F8534647A25EA12846FCF7D5F840B19D
:1042E0005DA001F077F8D1E700F008B95FA001F018
:1042F00071B864A001F06EF8684F00254FF4806A31
:10430000795D67A001F066F86D1C5545F8DB5DA08E
:1043100001F060F82E48CDF800804B4642883146C7
:1043200060A001F057F829485C492044019A01F047
:104330003AF8761CF6B2A9F10100864208D1B8F12C
:10434000000F05D004F58064A4B2CDF804809DE789
:104350004E450ED15DA001F03DF860A001F03AF8A5
:104360004FF4FA6002F076F900F0A4FBFDF730FD9F
:10437000FEE704F58064A4B2CDF804A086E700004F
:10438000D2D1BEADC7D0BBBBB5BD4F5441C8CECE58
:10439000F12E2EB9D2C6F0C6E4CBFBCEDEB9D8C81A
:1043A000CECEF12E2E2E2E2E0D0A0000140000204F
:1043B00018000020BFAACABCB2C1B3FD415050C70B
:1043C000F8D3F22E39304B2E2E0D0A000058020879
:1043D00034AE0020D7DCB3A4A3BA256420D7DCB068
:1043E000FCA3BA256420C4A9B0FCA3BA25640D0AB5
:1043F000000000004552524F520000002B51464F22
:1044000050454E3A2031000041542B51464F504503
:104410004E3D226F74612E62696E222C300D0A00AF
:104420006CAD002041542B51465345454B3D312C3A
:1044300025642C300D0A00004F4B000041542B51D5
:1044400046524541443D312C25640D0A00000000D0
:104450004F4B0D0A00000000CEB4BBF1C8A1B5BDA2
:10446000CEC4BCFE2E2E2E2E0D0A0000B4F2BFAA22
:10447000CEC4BCFECFB5CDB3D2ECB3A3202E2E2E2E
:10448000200D0A002A2A2A2A2A2A2A2A2A2A2A2AFD
:104490002A2A2A2A2A2A2A0D0A000000BCA800205B
:1044A00025782000B5B1C7B0B0FCA3BA25642CD7DD
:1044B000DCB3A4A3BA256420D7DCB0FCA3BA25647E
:1044C00020C4A9B0FCA3BA25640D0A00B6C1B0FC93
:1044D000BDE1CAF82E2E2E2E0D0A0000B9CCBCFE6E
:1044E000BDD3CAD5CDEAB3C92E2E2E2E6ABCB4BD1B
:1044F000ABD6D8C6F42E2E0D0A0000003CBCBDE899
:10450000C05FFFF7F3BE00002DE9F041444C0546C3
:104510008846E0680026810728680DD0E16801F030
:104520000301814216D1A8B1E0686968C0F30210A6
:10453000401C88420ED120E0012804D0022805D07A
:10454000032807D108E02168890701E021684905AF
:10455000002907DB01265FE02168890302D4216876
:104560004903F5E7E1686A686FF00F0321F0730112
:1045700003EB021211430143E160206820F08060E8
:104580002060FDF761F9074605E000BFFDF75CF923
:10459000C01B022837D820680001F7D4B8F1000FFB
:1045A00018D0B8F1010F1DD0287D4FF07E41400892
:1045B00001EB4060A96840EA01202169194A1140D5
:1045C00008432061206840F080602060FDF73CF9DE
:1045D00007461AE0A868297B000240EAC160216909
:1045E000114AECE7288A1149400801EB4050A968BC
:1045F00040EA012021690E4AE1E700BFFDF724F9F6
:10460000C01B022801D9032606E020680001F5D569
:104610002069A969084320613046BDE8F0810000A7
:1046200000100240FF80FFF9FF80FF070000E0FF5D
:10463000FF809FFFF8B51C4D06460024A86DC00002
:1046400002D5FDF70BFC0DE0A86D40F08050A86589
:10465000A86D00F080500090FDF700FCA96D21F0DE
:104660008051A965B0F5007F04D0802E07D94FF0A6
:1046700003040AE0802E08D9A02E01D804E001D15D
:10468000022402E0702E00D101240848016821F0C4
:10469000070121430160006800F00700A04201D03B
:1046A0000120F8BD0020F8BD0010024000200240AB
:1046B00070B50E4615460446FF21FBF796FEA1781D
:1046C000884206D1FF21E01CFBF78FFE617988420A
:1046D00001D0012070BD2088DFED100A40BA00EE45
:1046E000100ADFED0F1AB8EE400A80EE201A9FED97
:1046F0000D0A01EE210A86ED000AB4F8030040BA63
:1047000000EE100A0020B8EE400A80EE201A9FED5D
:10471000060A21EE000A85ED000A70BD00FF7F4702
:1047200000002F43000034C20000C84242F22020A3
:1047300000F01CB838B504464FF4604000F016F89D
:104740004FF6FF7000900623224689210148FDF7AD
:1047500031F938BD4C03002010B543F2A20000F03F
:1047600005F8BDE810401420FCF788BE1CB5010A0E
:104770008DF804108DF805004FF6FF7000900223AD
:1047800001AA88210148FDF7ABF91CBD4C030020AC
:104790000A4601464FF47A730148FEF751B900000A
:1047A000DC0A0020F8B515460E460B46009204467A
:1047B00000224FF4C05100F019F888B933460022A6
:1047C00080212046009500F079F848B93346002250
:1047D0004FF4C0612046009500F008F8002804D08E
:1047E000206E40F0200020660320F8BD2DE9F84F30
:1047F000994617460E4604460A9DFDF725F8411BCB
:10480000A9EB0105FDF720F8804629484FF4C06A5E
:104810000068C0EBC00000EB8000000D6843009012
:104820003FE0564501D107B9007BB9F1FF3F38D0D1
:10483000FDF70AF8A0EB0800A84203D215B10098D2
:1048400060B32CE02068416821F0E00141606068BD
:10485000B0F5827F0BD1A068B0F5004F02D0B0F563
:10486000806F04D12068016821F040010160A06AD6
:10487000B0F5005F09D12068016821F400510160A2
:104880002068016841F400510160012084F85D0056
:10489000002084F85C00032000F00CB80025401EC6
:1048A0000090206881683140B942BAD10020F3E716
:1048B0006000002018BCBDE8E08F00002DE9F8433F
:1048C0001E46914688460446089DFCF7BDFF401BE6
:1048D000351AFCF7B9FF074625480068C0F3CB300E
:1048E000684338E0701C37D0FCF7AEFFC01BA8420D
:1048F00003D215B1009860B32CE02068416821F024
:10490000E00141606068B0F5827F0BD1A068B0F52E
:10491000004F02D0B0F5806F04D12068016821F00B
:1049200040010160A06AB0F5005F09D1206801680C
:1049300021F4005101602068016841F400510160D8
:10494000012084F85D00002084F85C000320BDE8AD
:10495000F8830025401E00902068816838EA010035
:1049600004D000214945BDD10020F0E70121F9E73D
:10497000600000209FED370A374CDFF8E090DFF849
:10498000E0A084ED000A374E84ED010A4FF47A78F6
:104990002020FBF71BFD10B96420FCF76FFD3148A8
:1049A000FBF706FD18B92F48FBF7E8FC20812D48DE
:1049B0000830FFF7BFFE48B92A48221D26490830B3
:1049C000FFF776FE10B128A000F004FD01F0E8FA30
:1049D00005462068FAF7F0FF41EC100B27A12846A6
:1049E00001F08AFA6068FAF7E7FF41EC100B26A1A4
:1049F000284601F081FA2089FAF7B2FF41EC100B4A
:104A000024A1284601F078FA99F80000FAF7A8FFE7
:104A100041EC100B21A1284601F06EFA284601F066
:104A200081FB0746284601F0C7FA384600F022FD10
:104A300039461BA000F0CEFC0023454642463946CD
:104A4000DAF8000003F094FB7060284601F002FEE3
:104A50009EE7000000000000EC00002034AE0020C3
:104A600028000020000000206372632063686563F3
:104A70006B206661696C2E0A0000000054656D7041
:104A8000657261747572650048756D6964697479E1
:104A9000000000004C696768740000004353510037
:104AA0002323232323234A534F4E232323232573D6
:104AB0000D0A000008B5AA208DF800000122694601
:104AC000014800F070FC08BDF8BF0308054E064D14
:104AD0004FF40054308801F0BDFD21462846FCF714
:104AE000A6FEF7E7C400002000080048E6B03C49F5
:104AF0003C4C00250D70E06803F090F9FCF7F0F9EC
:104B0000FBF7B0FC4FF47A76FCF7D0F940B13046B1
:104B100001F0A0FD6D1C322DF6DD33A000F05AFC33
:104B2000FBF7FCFDFBF73CFE33A0FBF76BFE4228D6
:104B300002D141A0FBF7BCFFDFF8348140F25B7982
:104B40004FF090454FF480774AA0009049A349A2C6
:104B500049464AA0FBF758FD01214CA0FCF768F933
:104B6000FBF71CFDC8B150A000F034FC002201A9E5
:104B7000E06903F00BFC0128F2D101A94EA000F07E
:104B800029FC52A101A8FAF7EBFBC8B1012211469A
:104B90002846FCF754FE012218E0C82133A8FAF792
:104BA000D4FB324633A9A06903F0F0FB0128DDD124
:104BB000002233A947A0FCF7D9F80128C4D0D5E7D3
:104BC000002201212846FCF73AFE002239464046E1
:104BD000FCF735FEC82101A8FAF7B7FBC0E70000D3
:104BE00034AE002010000020D7A4CDF8B3ACCAB179
:104BF0002E2E2E2E0D0A0000687474703A2F2F335B
:104C0000392E3130372E3233392E34343A31383868
:104C1000302F53544D33325F56657273696F6E3F58
:104C2000696D65693D38363835343030353030306F
:104C30003738393300000000687474703A2F2F330E
:104C4000392E3130372E3233392E34343A31383828
:104C5000302F53544D33324F54413F696D65693D98
:104C60003836383534303035303030373839330035
:104C700000040048626561725F70690033392E314B
:104C800030372E3233392E343400000076312F6421
:104C90006576696365732F6D652F7270632F72651A
:104CA00071756573742F2B00D7D4BCECD2ECB3A311
:104CB0002E2E2E2E0D0A0000C6BDCCA8CFC2B7A244
:104CC000CFFBCFA2A3BA25730D0A00006F70656EEB
:104CD0000000000076312F646576696365732F6D7F
:104CE000652F74656C656D65747279000A4964207E
:104CF0000A4C08804FF0FF3509A000F06BFB2946F5
:104D0000206A03F0DFFB012801D1FFF791FA0120AF
:104D100001F0A0FCF0E70000C4000020100000201B
:104D20004F5441205461736B2069732072756E6912
:104D30006E672E2E2E2E2E2E0D0A0000FFF70CFD74
:104D4000FFF7F4FC40B105A000F044FBFFF712FEB2
:104D5000012001F07FFCF9E705A0F5E773687433E3
:104D60003020696E6974206661696C2E0A0000004B
:104D7000736874333020696E6974206F6B2E0A007B
:104D8000FEF7BCFEFEF7FAFC012001F0E5F900BFDA
:104D900002F008FD012001F05DFCF9E710B550209C
:104DA00080F31188BFF34F8FBFF36F8F03F0EAFCDE
:104DB00018B104494FF080500860002080F311883A
:104DC00010BD000004ED00E010B5AEB0442117A8FE
:104DD000FAF7BBFA142128A8FAF7B7FA5C2168465B
:104DE000FAF7B3FA01210804CDE917100324CDE93D
:104DF000224114210220249121900721CDE9251080
:104E0000279017A8FDF7B6FA0F20CDE92804002453
:104E10004FF48060CDE92A40042128A82C94FDF7A6
:104E200083F967200A940090089409940B940C94D9
:104E30006846FDF71BF84FF40070FCF7DBFF2EB05F
:104E400010BD00000D48016841F4700101600C487C
:104E5000016841F001010160002181600268094B95
:104E60001A4002608214C260026822F4802202604A
:104E700081610249C00380390860704788ED00E015
:104E800000100240FFFFF6EA0148FDF702BF0000F4
:104E9000400B002070B50268164B4FF080469842D8
:104EA00001D0B04203D122F070044A682243124C70
:104EB000124D984205D0B04203D0A04201D0A84282
:104EC00003D122F44076CA6832434E6922F0800250
:104ED000324302608A68C2620A688262984203D0E2
:104EE000A04201D0A84201D10969016301214161B9
:104EF00070BD0000002C0140004001400044014012
:104F000090F82410C90706D001684A68836A22F421
:104F100000321A434A6090F82410890706D50168C8
:104F20004A68C36A22F480321A434A6090F8241017
:104F3000490706D501684A68036B22F480221A43A8
:104F40004A6090F82410090706D501684A68436B47
:104F500022F400421A434A6090F82410C90606D58C
:104F600001688A68836B22F480521A438A6090F841
:104F70002410890606D501688A68C36B22F40052A2
:104F80001A438A6090F82410490611D501684A68CE
:104F9000036C22F480121A434A60016CB1F5801F41
:104FA00006D101684A68436C22F4C0021A434A6081
:104FB00090F82410090606D501684A68806C22F42E
:104FC000002202434A607047F8B500260446C667CF
:104FD000FCF73AFC0546206800686FF07E47000742
:104FE00008D52B4600224FF400112046009700F010
:104FF00081F960B92068006840070AD52B46002275
:105000004FF480012046009700F074F908B10320A6
:10501000F8BD20206067A06784F870600020F8BDAC
:1050200010B5806A0021A0F85A10A0F85210FDF7C0
:105030003AFF10BD70B5846A606FA56F21688968FA
:105040004FF00006090606D5212804D1A4F85260C5
:10505000204600F045F820688068400606D5222DDD
:1050600004D1A4F85A60204600F02BF8E06F40F01D
:105070001000E0672046FDF716FF70BD10B5014631
:10508000806A09680968890613D40021A0F85A10BB
:1050900001680A6822F480720A6001688A6822F056
:1050A00001028A6001688A6822F040028A60202139
:1050B0008167FEF709F910BD10B5806AFEF784F923
:1050C00010BD01680A6822F490720A6001688A685B
:1050D00022F001028A602021816700210166704769
:1050E00001680A6822F0C0020A6020214167704707
:1050F0002DE9F0410446016880682269E3691043A4
:10510000626900251A431043724F0A68724B1A40B5
:1051100002430A6020684168E26821F4405111436B
:1051200041602168A069B94201D0226A10438A68AF
:1051300022F4306202438A606849236868488B42DF
:105140000DD1D0F8880010F0030006D0012847D018
:10515000022843D0032830D144E001212EE06149E8
:105160008B420BD1D0F8880010F00C0034D004280A
:1051700036D0082832D00C281FD133E05A498B4250
:105180000BD1D0F8880010F0300025D0102827D09F
:10519000202823D0302810D124E0BB420DD1D0F8F4
:1051A000880010F4406017D0B0F5806F18D0B0F5CB
:1051B000006F13D0B0F5406F14D010214B4A002679
:1051C0004FF40040BB422FD171B102290FD0042906
:1051D0000FD0082975D10FE00021EFE70221EDE79C
:1051E0000421EBE70821E9E7FDF74EF803E010465C
:1051F00002E0FDF76DF8E0B3626802EB4201814224
:105200005FD8B0EB023F5CD8010E000273084FEA92
:105210003207C01959410023FAF744F8344AA0F57F
:10522000407191424FD94CE0E3694FF6EF778342EA
:1052300029D1092945D2DFE801F005080B440D44C6
:1052400044441000FDF720F806E0FDF72FF803E0D6
:10525000104602E0FDF73CF858B14100606801EBF0
:105260005001B1FBF0F080B2A0F11001B94228D892
:1052700000E02AE04FF6F0710140C0F34200014324
:105280002068C16021E009291BD2DFE801F0050890
:105290000B1A0D1A1A1A1000FCF7F6FF06E0FDF7BC
:1052A00005F803E0104602E0FDF712F868B1616806
:1052B00000EB5100B0FBF1F080B2A0F11001B94257
:1052C00001D9012501E02168C86026662846666686
:1052D000BDE8F08100800040F369FFEF0038014035
:1052E0000010024000440040004800400024F40048
:1052F000FFFC0F002DE9F0479A4617460E4604467C
:105300004FF000094FF02008089D39E0681C37D0A5
:10531000FCF79AFAA0EB0A00A84222D80DB3206845
:10532000016849072CD5C069C043000528D421680D
:105330004FF4006008622068016821F4D0710160B8
:105340002068816821F001018160C4F87480C4F88C
:105350007880C4F87C8000BF84F870900320BDE89A
:10536000F0872068016821F4D071016020688168AD
:1053700021F001018160C4F87480C4F87880EBE703
:105380002068C06936EA000004D00020B842BDD0D1
:105390000020E4E70120F9E70148FDF785BD0000A2
:1053A000CC080020FEE72DE9F04115460E460746E1
:1053B000FCF74AF9002407E030193919D0E9002335
:1053C0000020FCF7EBF80834AC42F5DBBDE8F04117
:1053D000FCF7DAB80FB4054B10B503A9044A0298DC
:1053E00000F08EF910BC5DF814FB00006964010840
:1053F000DC0000200FB41CB50246002007AC0029D9
:105400000BD0491ECDE90021054B6A46214606987E
:1054100000F076F9009A002111701CBC5DF814FBB5
:10542000355E01080FB4084B10B504A902AA039811
:1054300000F066F9044602A9002000F006FD2046AF
:1054400010BC5DF814FB00004B5E01080907090E53
:10545000002804DB00F1E02080F80014704700F021
:105460000F0000F1E02080F8141D704700487047DD
:10547000E800002030B528B1144C031F002021683B
:105480000A4605E0084630BD9A4203D810465268E5
:10549000002AF9D1002800D041680BD00468A3EBA2
:1054A0000005A54204D11B681C440346046002E0C9
:1054B000436000E023603AB11C68D51AA54203D1CD
:1054C00015682C441C6052685A6030BDE000002012
:1054D00000B583B09FED060B0A4601468DED000B2B
:1054E0006846FAF732FB9DED000B03B000BD0000EB
:1054F00000000000000000002DE9F04782460F4C3C
:1055000010480D4E0E4F001B4FF0000820F007050D
:105510004FF0010900221146504600F0F5FF002827
:1055200002D1306810B10020BDE8F0873C60C4E9CA
:105530000058C6F80090EDE7E4000020D4B2002047
:10554000E0000020D0B6002002E008C8121F08C109
:10555000002AFAD170477047002001E001C1121FF4
:10556000002AFBD1704700002DE9FF5F82B00021C7
:10557000DDE90430020DDDF840B0034318D044F6F5
:105580001050A2F2FF3242431514119801281FD087
:10559000A5EB0B00401C5FEA000A4FF000064E4FDF
:1055A000DFF83891B046504615D5CAF1000413E033
:1055B000119801244AA3012801D16FEA0B01029836
:1055C000119AC0E90031C0E9024206B000F08EB87D
:1055D000CBF10000DFE704460021404A491842EBC6
:1055E0000450CDE9001012E0E00707D032463B46F8
:1055F00040464946FAF7D0F88046894632463B464F
:1056000010461946FAF7C8F806460F466410002CF3
:10561000EAD1DDE90401DDE90023BAF1000F06DA81
:10562000FAF7BAF842464B46FAF7B6F805E0FAF749
:1056300028F942464B46FAF724F904460E46002262
:10564000284BFAF7E5F903D84FF0FF30014607E0A1
:105650000022254B20463146FAF73FFBFAF7F8FBCC
:10566000102409E0002C0ADB0A220023F9F71AFEB5
:10567000039B30321A55641E50EA0102F2D1641CB9
:10568000039AC4F111031444119A012A03D0012290
:1056900008430DD10AE0084304D000204FF0110B5D
:1056A000119072E7A3EB0B056D1E0DE05B4504DD69
:1056B0004FF0000205F1010504E003DA4FF00002AB
:1056C000A5F10105002AECD002981199C0E9023138
:1056D000C0E9004579E70000000014400000F03FF9
:1056E000300000000000F0430000E03F30BCBDE8A7
:1056F000C09F30380A2801D201207047002070472F
:105700002DE9FF4F95B09B468946064600250FE2DE
:10571000252877D100242746F84A0121059400E086
:10572000044316F8013F203B01FA03F01042F7D181
:1057300030782A2811D06FF02F033078A0F1300292
:10574000092A16D8059A44F0020402EB820203EB00
:1057500042021044761C0590EFE759F8042B05929D
:10576000002A03DA504244F40054059044F0020445
:10577000761C30782E2816D116F8010F44F0040458
:105780002A280DD06FF02F023078A0F13003092BBA
:1057900009D807EB870302EB4303C718761CF3E72E
:1057A00059F8047B761C30786C280FD006DC4C2826
:1057B00017D068280DD06A2814D104E0742810D0BE
:1057C0007A280FD10DE044F400140AE044F4801468
:1057D00001E044F440147278824202D104F580144E
:1057E000761C761C307866280BD013DC582877D0CE
:1057F00009DC002875D04528F6D04628F4D0472883
:105800001AD19DE118E0632835D0642879D0652845
:1058100012D195E1702873D008DC6728F1D069288F
:105820006FD06E280DD06F2806D1B5E073282CD02C
:10583000752875D0782874D05A46179990476D1CF2
:1058400075E1C4F30250022809D003280DD0D9F81D
:10585000001004280DD00D6009F1040967E1D9F8A2
:105860000010EA17C1E90052F6E7D9F800100D80E0
:10587000F2E70D70F0E719F8041B8DF80010002016
:105880008DF80100EA46012003E059F804AB4FF01F
:10589000FF3061074FF0000102D40DE008F1010173
:1058A0008846B9420FDA8045F8DB1AF8081000295B
:1058B000F4D108E008F1010188468142FADB1AF8C8
:1058C00008100029F6D105985B46A0EB0807214691
:1058D0003846179A00F097FA284400EB080507E0CD
:1058E0004DE029E10DE01AF8010B5A46179990474F
:1058F000B8F10108F7D25B4621463846179A13E102
:1059000042E00A220092C4F302524FF0000A022A37
:1059100008D059F804CB032A4FEAEC710AD00DE005
:1059200029E02AE009F1070121F00702F2E802C1AB
:10593000914609E00FFA8CFC4FEAEC71042A03D17E
:105940004FFA8CFC4FEAEC71002907DA0A46002175
:10595000DCF1000C61EB02012D2202E0220504D5EE
:105960002B228DF80420012203E0E20701D020223F
:10597000F7E7904659E00A2102E010220DE01021DD
:105980004FF0000A00910BE010224FF0000A44F0A3
:1059900004040827009203E008224FF0000A009256
:1059A000C4F30252022A05D059F804CB0021032A7D
:1059B00008D009E009F1070121F00702F2E802C16D
:1059C000914605E01FFA8CFC042A01D10CF0FF0C73
:1059D0004FF00008220728D5702806D0009B83F0DE
:1059E000100353EA0A0305D00EE040228DF804208C
:1059F000012208E05CEA010206D030228DF8042082
:105A00008DF8050002229046009B83F0080353EABC
:105A10000A030AD15CEA010201D1620705D53022EE
:105A20008DF804204FF001087F1E582804D034A0C0
:105A300003900EA802900DE036A0F9E753466046A9
:105A4000009AF9F72FFC84460398825C0298401E66
:105A5000029002705CEA0100F0D1029806A9081ACF
:105A600000F1200A600702D524F4803400E0012709
:105A7000574502DDA7EB0A0000E0002000EB0A0119
:105A8000009005984144401A0590E00306D45B4617
:105A90002146179A059800F0B6F90544002706E05C
:105AA00001A85A46C05D179990476D1C7F1C474559
:105AB000F6DBE0030CD55B462146179A059800F00B
:105AC000A2F9054404E030205A46179990476D1C0E
:105AD0000099481E00900029F5DC08E00298029920
:105AE0005A460078491C0291179990476D1CBAF1EB
:105AF0000001AAF1010AF1DC65E1000009280100BA
:105B00003031323334353637383961626364656633
:105B100000000000303132333435363738394142F5
:105B2000434445460000000000F05BF90544761C44
:105B3000307800287FF4ECAD19B0284600F04EB95B
:105B4000620700D4062709F1070222F0070CFCE8DF
:105B50000223E14603F000485FEA080C02D00FF28E
:105B6000702C0DE05FEA045C02D50FF2682C07E0B0
:105B70005FEAC47C02D00FF2602C01E0AFF2700C3F
:105B80004FF0FF3823F00043CDF850C065280CD00B
:105B900006DC452809D046281DD047283DD13DE0E8
:105BA000662818D067287ED138E00021112F01DB4C
:105BB000112000E0781CCDE9000106A90EA8FFF72E
:105BC000D3FCDDE90F010E9A03910021009207F149
:105BD000010A04914DE04FF000400097CDE901101B
:105BE00006A90EA8FFF7C0FCDDE90F0203920E9B89
:105BF00011990022DDF80CA00093049211B9791CD0
:105C000000EB010AB7EB0A0004D4C0F1FF3007F142
:105C1000010A0490AAEB0700019044E0012F00DA8A
:105C200001270021112F01DD112000E03846CDE9C8
:105C3000000106A90EA8FFF797FCDDE90F010E9AF7
:105C40000391002104910092BA4621070CD40399D4
:105C5000514500DA8A46BAF1010F05DD009AAAF132
:105C60000101515C302908D0B84202DA10F1040F6A
:105C700006DA0121CDE9011015E0AAF10101E9E7F9
:105C8000002805DC049901440491AAEB000102E01C
:105C9000411C514500DD8A460499401A401C019080
:105CA0004FF000400290200704D40198504501DBDA
:105CB000CDF8048000208DF84F0002980DF14F07B9
:105CC000B0F1004F25D02B200E9002984FF0020823
:105CD00000280CDA404202902D200E9007E00A21A5
:105CE0000298F9F7ADFE3031029007F8011DB8F1C6
:105CF0000001A8F10108F2DC02980028EFD1791E1A
:105D00000E980870307800F0200040F0450007F849
:105D1000020D12A8C01B00F107081498007800B10A
:105D2000012000EB0A01019801EBE0710598414464
:105D3000401A401E0590E00306D45B462146179AA0
:105D4000059800F060F805441498007818B15A4698
:105D5000179990476D1CE00324D55B462146179A9E
:105D6000059800F050F805441CE00498002807DB73
:105D7000DDE90301884203DD0098405C179901E0EA
:105D8000179930205A469047049805F10105401CA8
:105D900004900198401E019004D12E205A46179974
:105DA00090476D1CBAF10001AAF1010ADDDC05E0A3
:105DB00017F8010B5A46179990476D1CB8F100016E
:105DC000A8F10108F4DC5B462146179A0598ABE67A
:105DD0002D0000002B0000002000000030BCBDE8BA
:105DE000C08F2DE9F041044600251E461746880461
:105DF00004D405E039462020B0476D1C641EF9D557
:105E00002846BDE8F0812DE9F041044600251E46F4
:105E10009046C80301D5302700E02027880404D528
:105E200005E041463846B0476D1C641EF9D528464A
:105E3000BDE8F0814A68002A06D00A68531C0B604E
:105E400010704868401E486070470A68531C0B6019
:105E50001070704719B110B1826812B104E00020CF
:105E60007047816005E0024610680028FBD1116090
:105E70004A60012070472DE9F0415FEA000806986A
:105E80001E4614460D461ED0EDB1E4B118B1E068CF
:105E900040F4007708E01946284600F049F905006B
:105EA00011D0E06820F40077A089800503D4206A2F
:105EB00008B171688847E760214640462562BDE821
:105EC000F041FFF7C7BF0020BDE8F08110B588B1F1
:105ED00003687BB142688168914206D25C5C202CE9
:105EE00003D8491C81600028F5D1914201D1491E97
:105EF000816010BD002010BDF8B50C46054600F0CD
:105F000013F8064600200090064B324621462846EC
:105F1000FFF7B1FF0028304602D100F04DF8002015
:105F2000F8BD0000D000002010B518482DED028B00
:105F3000B0EE408AF0EE608A00F073F8040020D0E2
:105F40000820E0609FED120B84ED068B53EC102BC4
:105F500051EC180BF9F75CFD02D86FF000400FE030
:105F60009FED0D0B51EC180B53EC102BF9F738FD8E
:105F700002D84FF0004003E051EC180BF9F7FDFC9C
:105F800060612046BDEC028B10BD0000D0000020F7
:105F90000000C0FFFFFFDF41000000000000E0C183
:105FA00010B5044800F03DF8002801D04021C16040
:105FB00010BD0000D000002070B504460F4E19E05F
:105FC000A0892568C0050AD4A06820B1FFF7F4FFB6
:105FD000A089C00503D4206908B171688847A089E9
:105FE000800503D4206A08B171688847716820462B
:105FF00088472C46002CE3D170BD0000D000002063
:10600000002901DA0020704700F03ABA0248D0E9CE
:106010000010084470470000C8000020002200F073
:106020003ABA10B5016828208847040002D0282118
:10603000F9F78BF9204610BD00221146AFF300801E
:106040002DE9F04788B00D46044692461C2168466B
:10605000F9F77BF931480026002C066046605AD0DB
:1060600020460094F9F78EF9401CDFF8B090CDE996
:106070000106D9E90212D9F810000491CDE90520F2
:10608000B04609F10800FFF7CCFF07002BD00098BD
:106090006E4608B1029808B100260BE0019804286A
:1060A00008D903221EA10098F9F78AF910B90298BD
:1060B000C01C02903046FFF709FF0146384600F049
:1060C00041FD68B1BAF1000F14D06846FFF7FEFE3B
:1060D000DDE90101814203D202990098405C48B198
:1060E0003846FFF769FFDDE90121404691420AD2B7
:1060F00008460BE01DB10299009808442860384614
:1061000008B0BDE8F087111E00D0481E0DB121185F
:106110002960C9E900400020F2E70000C800002023
:10612000EFBBBF00014A012100F08ABDD000002072
:1061300070B50E4605000DD0F9F724F9401C316802
:1061400004468847060005D022462946F9F7E4F8B8
:10615000304670BD002070BD2DE9F04387B00024AB
:10616000039404940594069401287DD14FF478405B
:10617000F023002100901A460846FDF71FFC32204C
:1061800000F068FA4FF4FC69F02300211A46084633
:10619000CDF80090FDF712FC322000F05BFAF023FE
:1061A00000211A4608460094FDF708FC322000F052
:1061B00051FA48F2304700211E23F022084600978A
:1061C000FDF7FCFB6A486BA1427903A8FFF72AF9A7
:1061D0000C254FF6FF760097CDE9016503AB6422ED
:1061E00008210520FDF7B7FD0097CDE9016566A3FD
:1061F00014220821C820FDF7AEFDD82210230C215F
:1062000010460094FDF74AFBDC22102308211046BB
:106210000094FDF743FBE022102305211046009473
:10622000FDF73CFBE4221023022110460094FDF709
:1062300035FB1F23322264213C20FDF7A7FA1F23E0
:10624000342264213C20FDF7A1FA4FF018084FF6E4
:10625000E0778DE890014DA3282250212320FDF7FF
:106260007AFD3246642100E07EE05620FDF79AFB7D
:10627000CDE9004647A30A2264215A200295FDF782
:106280006AFDCDE9004644A364226E211E200295DA
:10629000FDF761FD1F2330225521B420FDF776FA6A
:1062A0001F2332225521B420FDF770FA8DE89001AA
:1062B00036A328224121A020FDF74DFDCDE900465F
:1062C00038A30A225521D2200295FDF744FDCDE9DD
:1062D000004635A346225F21A0200295FDF73BFD35
:1062E000CDE9004633A32822A0211E200295FDF708
:1062F00032FD8DE89001282224A3AF211046FDF73E
:106300002AFDD5236422D2211E20CDF80090FDF76E
:1063100055FBCDE9004628A32822A0219B20029509
:10632000FDF719FD8DE8900118A33222AF219B20C3
:10633000FDF711FDCDE9004621A31422BE21DC208A
:106340000295FDF708FDD523DC22D2219620CDF859
:106350000090FDF733FBCDE900471AA3A022DE2110
:1063600037200295FDF7F7FC07B0BDE8F083000089
:1063700034AE00204150502D56657273696F6E3AED
:106380002056256400000000344700006E756C6CD8
:10639000000000004300000054656D706572617478
:1063A000757265002500000048756D69646974792F
:1063B00000000000435351006C69676874000000DE
:1063C0006C757800687474703A2F2F77656E7A68F0
:1063D000656E672E636C7562000000002DE9F04168
:1063E00004001CD02268D2B1636813B1A06898423F
:1063F00015D24FF00046B14211D2A568491C681869
:10640000834202D35019BDE8F081216939B9B0F156
:10641000804F06D3B04202D26FF0004702E0002066
:10642000F1E74700236A00262BB13946104698470A
:10643000050012D00CE0A1693846884705000CD051
:10644000A2682168521CF8F767FFE1692068884755
:10645000C4E90057A0682844D5E7E1692068884767
:1064600066602660DBE7000013B54FF6FF7301227C
:1064700069460248FCF7AAFF1CBD0000CC080020BA
:10648000002807D0806801E00068491E002801D07C
:106490000029F9D170472DE9F041884628B1B8F1BB
:1064A000000F02D0846822B90CE00020BDE8F08122
:1064B000246834B34046216AF8F76BFF0028F7D10F
:1064C0001FE02468ECB1266A5FEA0805F9D0002EC7
:1064D000F7D0B54215D002E098B16D1C761C287833
:1064E000F8F714FF07463078F8F710FF874228784E
:1064F000F2D0F8F70BFF05463078F8F707FF854232
:10650000DFD12046D2E700002DE9F0410B3020F02A
:106510000706104D19E02068B04215D3B0420AD9E1
:10652000871B201DD4F80480F8F7F6FEA019C0E9F7
:106530000078286004E060682860201DF8F7ECFE11
:10654000201D2660BDE8F081251D2C68002CE2D1BD
:106550000020F7E7E000002019481A490860FBF71F
:1065600097FBFEF731FCFDF71DFDFDF775FCFDF710
:1065700003FEFDF7BBFDFDF71DFEFDF7D5FDFDF7A5
:1065800089FDFDF735FEFAF7BDFC0F4C0820607160
:106590000EA0FEF71FFF0EA0FEF71CFF16A0FEF7D1
:1065A00019FF61791EA0FEF715FF13A0FEF712FF79
:1065B00007A0FEF70FFFFDF775FC00F052F8FEE7AD
:1065C00000F0000808ED00E034AE00200D0A0000E5
:1065D0002A2A2A2A2A2A2A2A2A2A2A2A2A2A2A2A1B
:1065E0002A2A2A2A2A2A2A2A2A2A2A2A2A2A2A2A0B
:1065F0002A2A2A0D0A0000002A20202020202020FC
:10660000202020202020202020202020202020208A
:10661000202020202020202020202A0D0A000000F9
:106620002A2020202057656E7A68656E67277320C0
:10663000415050205625642020202020202020205A
:1066400020202A0D0A00000001460020842900D0E5
:10665000C81C704710B500B9012001F0CBFA00202A
:1066600010BD10B501F0A4FB002010BD38B5D0E975
:10667000011204683AB1C3682BB100200090204693
:1066800001F0FEFC38BD2046BDE83840002201F094
:10669000D3BC38B543684BB1012909D1032000228E
:1066A00000901146012001F0EBFC38BD012901D01A
:1066B000002038BD03220021012001F0BDFC0400B0
:1066C00004D000231A46194601F052FD204638BD79
:1066D0007FB50D4604464169B0F9080081B1A16952
:1066E00071B1FFF7B1FFD4E905128DE80700D4E9D5
:1066F00000102B46226902F00BF8039004B070BD25
:10670000FFF7A2FF03A9CDE90001208A2B4682B240
:10671000D4E9001001F0CCFF012801D00020EDE702
:106720000398EBE72DE9F04107460025C8680C46C1
:106730002E46B0F57A7F59D2401CE0602168A068EF
:10674000095C5B2952D1401CA0602046FFF7BEFBCC
:106750004CB1D4E90110884203D22268125C5D2A50
:1067600033D0884203D3A068401EA0603EE0401EA4
:1067700004F11008A0604046FFF753FC88B30DB346
:10678000306046600646A068401CA0602046FFF7C7
:106790009DFB2146304600F0D5F920B32046FFF797
:1067A00095FB04B3D4E90110884203D22168095C47
:1067B0002C29E0D06268904215D22168085C5D28DF
:1067C00011D102E005462E46DDE7E068401EE0609C
:1067D0002020C7E90250A068401CA0600120BDE84D
:1067E000F081FFE715B12846FFF7E6FB0020F6E74A
:1067F000034610B500200246995CA1F13004092C33
:1068000001D830380AE0A1F14104052C01D837380D
:1068100004E0A1F16104052C08D857380844032A84
:1068200000D20001521C042AE6D310BD002010BD86
:10683000F0B54FF000022DED028B91B00C00054633
:106840004FF02E03114610923DD02068D8B36E460B
:1068500027E027683844085C34281BD00ADCA0F104
:106860002B07092F23D2DFE807F015221517221571
:106870001515150038280DD006DC35280AD0362825
:1068800008D0372813D105E0392803D0452801D096
:1068900065280CD1705400E07354491C3F2906D27E
:1068A0002CB1A068D4F804C047186745D1D37254FE
:1068B00010A93046FEF70CFE1098B0EE408AF0EEBC
:1068C000608A864204D1002011B0BDEC028BF0BD7D
:1068D0009FED130B85ED068B53EC102B51EC180B31
:1068E000F9F796F802D86FF000400FE09FED0E0B1D
:1068F00051EC180B53EC102BF9F772F802D84FF04B
:10690000004003E051EC180BF9F737F868610820F4
:10691000E8601099A068891B0844A0600120D3E7B3
:106920000000C0FFFFFFDF41000000000000E0C1E9
:106930002DE9F04107460026C8680C463546B0F5FB
:106940007A7F76D2401CE060002C72D0D4E901102E
:1069500088426ED22168095C7B296AD1401CA06004
:106960002046FFF7B3FAD4E90110884203D2226827
:10697000125C7D2A4CD08842A0F10100A06058D260
:1069800004F110084046FFF74CFBE8B3F6B128606D
:1069900045600546A068401CA0602046FFF796FAB7
:1069A0002146284600F047F878B32046FFF78EFAD4
:1069B00028692862002028613CB3D4E9011088428C
:1069C00034D22168095C3A2930D102E006463546C6
:1069D000E0E7401CA0602046FFF778FA21462846F1
:1069E00000F0B0F888B12046FFF770FAD4E9011042
:1069F000884203D22168095C2C29C3D06268904286
:106A000014D22168085C01E00FE00FE07D280DD171
:106A1000E068401EE0604020C7E90260A068401CBA
:106A2000A0600120BDE8F08103E016B13046FFF719
:106A3000C3FA0020F6E72DE9F84380468B68086822
:106A40004FF00009C418CDF8009008680E46651C88
:106A5000C15C641C22296ED10022716808E0BCF17F
:106A60005C0F04D17F1C8F4265D2521C641C641CD5
:106A7000271A8F4204D294F800C0BCF1220FEED145
:106A8000271A8F4257D22178222954D11844201A2C
:106A9000801A3169401C884707004CD0009737E0C6
:106AA00029785C2905D000986D1C00F8011B009026
:106AB0002EE00220611B012939DB6A78662A14D096
:106AC00008DC222A12D02F2A10D05C2A0ED0622A8B
:106AD0002DD108E06E2A0ED0722A0ED0742A0ED064
:106AE000752A24D10DE0082200E00C22009901F85B
:106AF000012B00910BE00A22F8E70D22F6E70922AC
:106B0000F4E76A462146284600F00CFF78B10544B8
:106B1000A542C5D3009981F800901021C8E9031758
:106B20003068201A401CB0600120BDE8F88317B11E
:106B300071693846884715B13068281AB06000205E
:106B4000F3E7000070B50C0005465ED02068002811
:106B50005BD0A16863680A1D9A4205D808440422E4
:106B600031A1F8F72DFC78B3A0686268411D0126B9
:106B7000914206D82168052208442DA1F8F720FC8F
:106B800028B3A0686268011D914206D821680422DA
:106B9000084429A1F8F714FCE8B1D4E901018142C5
:106BA00003D22268525C222A1DD0814221D222685F
:106BB000525C2D2A02D0303A092A1AD8214628469A
:106BC000BDE87040FFF734BE0420E86006E0EE60E8
:106BD000A068401D04E002206E61E860A068001D0E
:106BE000A060012070BD21462846BDE87040FFF737
:106BF00022BF814203D22268525C5B2A07D08142C5
:106C000003D22068405C7B2807D0002070BD21465D
:106C10002846BDE87040FFF785BD21462846BDE8FF
:106C20007040FFF785BE00006E756C6C00000000C0
:106C300066616C7365000000747275650000000089
:106C4000F0B589B00E460746144624216846F8F789
:106C50007CFB4FF480752168284688470596CDE96E
:106C6000000594E8070006AB83E80700009888B3A6
:106C70006946384600F0F4F940B3684600F084FDF8
:106C8000A26800263AB102990098491C9047050075
:106C90001CD0009617E002982168401C8847050028
:106CA00014D0DDE90110401C814201D20A4601E006
:106CB000029A521C28460099F8F72EFB02982E548F
:106CC000616800988847284609B0F0BD009808B16F
:106CD000616888470020F7E72DE9F04185680C00DE
:106CE0000FD001212046FFF779FB00280AD05B2155
:106CF0000170A068401CA060E068401C0026E060B5
:106D000025E00020BDE8F0812146284600F0A8F9E2
:106D10000028F7D0204600F037FD2868B0B1606940
:106D200008B1022700E00127791C2046FFF756FB37
:106D30000028E7D02C2100F8011B616911B1202146
:106D400000F8011B0670A0683844A0602D68002D73
:106D5000DAD102212046FFF741FB0028D2D05D2185
:106D600001704670E068401EE0600120CAE7000044
:106D7000F0B52DED028B8BB090ED068B0E004FF031
:106D800000044FF02E071FD053EC182B1DA16846AE
:106D9000FEF748FB054608AA1CA16846F8F720FB49
:106DA000012808D19DED080B53EC182B51EC100B6A
:106DB000F8F716FE06D053EC182B15A16846FEF71F
:106DC00031FB05461A2D04D300200BB0BDEC028B1D
:106DD000F0BD691C3046FFF701FB0028F5D069467D
:106DE0002E2306E00A5DBA4201D1035500E00255A8
:106DF000641CAC42F6D300210155B0682844B06051
:106E00000120E2E725312E3135670000256C67004F
:106E100025312E31376700002DE9F04187680C00DD
:106E200003D0606920B1022603E00020BDE8F081B4
:106E30000126711C2046FFF7D1FA0028F6D07B21ED
:106E400000F8011BE168491CE1606169202501B17E
:106E50000570A06830440026A06058E088B1204644
:106E6000E168FFF7BBFA0028E0D0002103E000BF93
:106E700000F8015B491CE2688A42F9D8A068104416
:106E8000A0602146386A00F063F80028CED0204682
:106E900000F07AFC606908B1022000E00120804621
:106EA00001462046FFF79AFA0028BFD03A2100F8A1
:106EB000011B616901B10570A16801EB0800A060C8
:106EC0002146384600F0CCF80028AFD0204600F02C
:106ED0005BFC606900B10120396801B1012100EB60
:106EE000010808F101012046FFF778FA00289DD03B
:106EF000396811B12C2100F8011B616909B100F852
:106F0000015B0670A16801EB0800A0603F68606942
:106F1000002FA3D110B1E168491C00E002212046F6
:106F2000FFF75CFA002881D0616941B1002102E0DD
:106F300000F8015B491CE268521E8A42F8D87D21A4
:106F400001704670E068401EE06001206EE70000BE
:106F50002DE9F0470A0005464FF0000601D01DB1AB
:106F600020E00020BDE8F08703211046FFF736FA45
:106F70000028F7D037A1F8F71AFA5AE00C2927D0E1
:106F800006DC082924D0092922D00A2906D11FE0CD
:106F90000D291DD022291BD05C2919D0202900D20F
:106FA000761D401C01780029E8D1401B8719F91C87
:106FB0001046FFF713FA041ED4D04FF022084FF00A
:106FC000000984F800802EB1661C4FF05C0A28E0AE
:106FD000761CE6E73A462946601CF8F79DF923E05F
:106FE0001F2803D9222801D05C2830D106F801AB34
:106FF0002A7850460C2A23D006DC082A1ED0092AFB
:1070000024D00A2A06D11DE00D2A1DD0222A12D032
:107010005C2A1CD010A13046FEF704FA361D6D1C08
:10702000761C28780028DBD1E01980F8018080F8F0
:107030000290012096E786F80080F0E7622006E0E3
:10704000662004E06E2002E0722000E074203070C0
:10705000E5E70000222200007525303478000000AA
:1070600070B504000E4613D096B1207B102843D093
:1070700008DC012816D002281ED004280AD00828CF
:1070800006D121E020283CD040283FD0802820D0C5
:10709000002070BD05213046FFF7A0F90028F8D088
:1070A0001DA106E006213046FFF798F90028F0D030
:1070B0001BA1F8F77CF91DE005213046FFF78EF99A
:1070C0000028E6D018A1F4E72046BDE87040FFF79D
:1070D0004FBE20690028DCD0F8F754F9401C054663
:1070E00001463046FFF77AF90028D2D02A462169B6
:1070F000F8F712F9012070BD2069BDE87040FFF774
:1071000027BF2046BDE87040FFF7E6BD2046BDE83A
:107110007040FFF781BE00006E756C6C00000000CF
:1071200066616C7365000000747275650000000094
:107130002DE9F041184C0F46054666692068001D90
:1071400000F059FC38B9206890F82C1001208840D4
:10715000A1698143A161681C07D137B12168BDE8ED
:10716000F0410E48091D00F09BBC20683544B54233
:107170004560216805D2A068BDE8F041091D00F016
:1071800077BC6068091D00F073FC206B854200D25B
:107190002563BDE8F081000064000020680C002039
:1071A0002DE9F041054600F087FC2E4C2069401C7B
:1071B000206120682C4F10B1E06940B32DE02560BC
:1071C0002069012829D1002606EB860007EB800004
:1071D00000F040FC761C072EF6D323488C3000F0DC
:1071E00039FC2148A03000F035FC1F48B43000F0D5
:1071F00031FC1D48C83000F02DFC1B48DC3000F08D
:1072000029FC19488C3060601430A06005E02068CB
:10721000E96AC06A884200D82560E06A401CE062E2
:10722000E96A0120A26988401043A06101EB810056
:1072300007EB8000291D00F033FC00F05DFCE069E5
:1072400000280CD02068E96AC06A884207D2074942
:107250004FF080500860BFF34F8FBFF36F8FBDE8D2
:10726000F0810000640000208C0B002004ED00E0A1
:1072700030B4026C0B46002A0BD0C1681144C160C7
:107280008468A14201D30168C16030BC1846F8F798
:1072900043B830BC70472DE9F041856B1746044672
:1072A0000026026C82B1C7B1E068F8F735F8E168F2
:1072B000206C091AE1602268914202D2A168081A82
:1072C000E060022F16D017E02068A8B9A06801F08E
:1072D000BDFA06460020A0600EE06068F8F71CF8D2
:1072E000216C606808446060A168884204D320680B
:1072F000606001E005B16D1E6D1CA5633046BDE800
:10730000F08110B5044690F8510058B101280CD016
:1073100002280FD0502080F31188BFF34F8FBFF3A6
:107320006F8FFEE7206B00F0FBFB2046BDE81040AE
:1073300000F0F6BB10BD00000F4849F6404142077F
:1073400005D0C01D0C4A20F00700821A891A0B4A8A
:1073500000230144C2E900030839103A21F0070173
:1073600011604B600B600B1AC0E9001393604FF083
:1073700000405360D06070477C0C0020B0000020BB
:10738000144E154CA6F1C8074FF08058DFF84C900A
:1073900012E000BF00F090FBF068C568281D00F007
:1073A0002AFB2069401E2061E068401EE06000F07A
:1073B000A3FB2846FFF7A5FFE0680028EAD138685C
:1073C0000128F9D9C9F80080BFF34F8FBFF36F8F41
:1073D000F2E70000540C00206400002004ED00E0FF
:1073E0000346009829B10260C0E90F31012100F085
:1073F0007BBE0060F8E700002DE9F05F8846DDE91C
:107400000B941546834691009A460A9EA522206B4E
:10741000F7F794FF6FF00301206B01EB850108443F
:1074200020F00707780707D0502080F31188BFF3BA
:107430004F8FBFF36F8FFEE70025B8F1000F0FD01D
:107440005FF00000221818F8001082F8341018F8C5
:10745000001011B1401C1028F4D384F8435001E00F
:1074600084F83450072E00D30626E662C4E911657D
:10747000201D00F0FAFA04F1180000F0F6FA246179
:10748000C6F107006462A061E56484F8505052467A
:107490005946384600F02CF92060B9F1000F01D0B0
:1074A000C9F8004000F000B830BCBDE8C09F000043
:1074B00030B5114900E011460A688242FBD34B689F
:1074C0005C18844203D14068184448600846436809
:1074D0001C18944209D1084C103C2468A24209D0DF
:1074E00052681A4442600A6812680260814200D001
:1074F000086030BD0460F9E7B000002010B5044614
:1075000000F0DAFAA06B28B15FF0000400F0F4FAA2
:10751000204610BD0124F9E706484168096829B1F1
:107520004168C968C9684968016370474FF0FF3115
:10753000FAE700006400002008484068401C4FF053
:10754000500080F3118804D0BFF34F8FBFF36F8FCB
:10755000FEE7BFF34F8FBFF36F8FFEE7B800002049
:10756000002150B10A4B42699A420FD1806AA3F1BF
:10757000280290420AD040B108E0502080F31188E0
:10758000BFF34F8FBFF36F8FFEE7012108467047AF
:10759000680C00202DE9F041044600F08DFA94F9C2
:1075A000455004F1240609E0606A48B1304601F014
:1075B000E3F908B100F04CFB6D1E6DB2002DF3DC59
:1075C0004FF0FF3684F8456000F096FA00F074FA48
:1075D00094F9445004F1100709E0206948B1384695
:1075E00001F0CAF908B100F033FB6D1E6DB2002D39
:1075F000F3DC84F84460BDE8F04100F07DBA00009F
:107600002DE9F0410546002700F066FC314E306858
:1076100008B9FFF791FEF06805424BD1C5B30835B4
:1076200068070ED005F00700C0F1080005446807A0
:1076300007D0502080F31188BFF34F8FBFF36F8FB7
:10764000FEE72DB37068854234D8224810300146D9
:107650000C6801E020460C466168A94202D221680C
:107660000029F7D131688C4224D007682168016075
:1076700060680837411B10290FD96019420708D0EC
:10768000502080F31188BFF34F8FBFF36F8FFEE759
:1076900010E041606560FFF70BFF61687068401A99
:1076A0007060B268904200D2B060F0680143002080
:1076B000C4E9000101F09AF9780707D0502080F35F
:1076C0001188BFF34F8FBFF36F8FFEE73846BDE8D9
:1076D000F0810000A00000200449086818B1086883
:1076E000826C521C826408687047000064000020AD
:1076F00010B5031F4FF080741C601B1F21F00101A7
:107700001960191F044B0B6014390A60091F6FF0D0
:10771000020244380A6010BD397501082DE9F047AE
:1077200004008A4616D054F8047CD4F800903E1F1A
:10773000564500D956462046FDF79CFE054688462C
:10774000324621465046FEF7DFFE40B1C0F80090B9
:10775000BDE8F087BDE8F0470846FDF7CDBE44E937
:10776000017955B129686A18211F8A4202D9611B23
:10777000091F2960C5F80480EAE7024AC2F80080C0
:10778000E6E70000E000002010B5040009D0206802
:10779000002806D0A1680844F7F7F4FDA168084462
:1077A000A06010BDF0B58BB00024584F089404942D
:1077B000079403940594069409943868F8F7FCF844
:1077C00041EC100B52A153EC102B07A8FDF72AFE39
:1077D0004FF6E076CDE90046182507AB2822502168
:1077E00023200295FCF7B7FA039404947868F8F71D
:1077F000E3F841EC100B46A153EC102B03A8FDF766
:1078000011FECDE9004603AB28224121A0200295BC
:10781000FCF7A1FA05948DF818403A893DA105A816
:10782000FDF700FECDE9004605AB3222AF219B20DB
:107830000295FCF790FA384F099438A13A7809A8D4
:10784000FDF7F0FDCDE90046282209ABAF21104637
:107850000295FCF780FA387863281ED0411E07296C
:1078600007D84FF47840D822102300900C211046FE
:1078700011E0A0F109014FF6FF7406290FD8D822B4
:1078800010230C2110460094FCF708F8DC2210238A
:10789000082110460094FCF701F80BB0F0BDA0F1F0
:1078A0001101082913D8D82210230C211046009466
:1078B000FBF7F4FFDC221023082110460094FBF7AD
:1078C000EDFFE0221023052110460094E3E71B386A
:1078D0000828E2D2D82210230C2110460094FBF78E
:1078E000DDFFDC221023082110460094FBF7D6FFB1
:1078F000E0221023052110460094FBF7CFFFE4227D
:107900001023022110460094C5E70000EC0000207F
:10791000256600002535640034AE00202564202053
:10792000200000002DE9F04705460027481B1646B9
:10793000894606285DDBA81CFEF75AFF0446A0F521
:107940005C414FF48060814253D3A4F55841824694
:1079500051451AD2A81DA9EB00014FF00C080629C9
:1079600047DB01785C2944D14178752941D1801CDD
:10797000FEF73EFFA0F55C4151453AD2C4F3090140
:1079800061F39F2000F5803002E04FF006082046AA
:10799000802801D2012110E0B0F5006F02D202214F
:1079A000C0270AE0B0F5803F02D20321E02704E0BF
:1079B000B0F5881F1DD20421F0274A1E08E000BF41
:1079C00000F0BF03346843F080038009A354521EC3
:1079D00012F0FF02F4D1012901D9384301E000F08F
:1079E0007F00326810703068084430604046BDE85F
:1079F000F0870020FBE7D0E9013201699A60D0E905
:107A000001235A604A68824201D182684A6000229A
:107A100002610868401E08600868704710B50400DD
:107A200006D000F049F8A46B00F066F8204610BDBF
:107A3000502080F31188BFF34F8FBFF36F8FFEE7A5
:107A4000034B036003F1540008608020106070470E
:107A5000F800002000F108014FF0FF32C0E90112E8
:107A6000C160016100210160704700210161704720
:107A700030B50B685A1C02D000F1080202E002691E
:107A800004E02246546825689D42FAD953684B6049
:107A900099608A60516008610168491C016030BDCD
:107AA00042684A6093688B6093685960916008618E
:107AB0000168491C01607047502080F31188BFF3B2
:107AC0004F8FBFF36F8F0A494868401C48600128F8
:107AD0000CD10848006810F0FF0F07D0502080F349
:107AE0001188BFF34F8FBFF36F8FFEE77047000021
:107AF000B800002004ED00E00849486828B1401EA5
:107B0000486001D180F311887047502080F31188BC
:107B1000BFF34F8FBFF36F8FFEE70000B800002068
:107B200070B5002827D0144DA0F108046168E868FA
:107B3000014207D1502080F31188BFF34F8FBFF36C
:107B40006F8FFEE722683AB1502080F31188BFF3AF
:107B50004F8FBFF36F8FFEE78143616000F0BCF988
:107B600060686968084468602046FFF7A1FCBDE8CA
:107B7000704000F03BBF70BDA00000204FF0E0203F
:107B800000210161816105494FF47A720968B1FBF6
:107B9000F2F1491E41610721016170476000002038
:107BA00010B5F7F759FB114910280ED300F1E0206A
:107BB00090F8F0030A78904207D2502080F31188A1
:107BC000BFF34F8FBFF36F8FFEE7094800688968E6
:107BD00000F4E060884207D9502080F31188BFF399
:107BE0004F8FBFF36F8FFEE710BD0000B80000207D
:107BF0000CED00E010B5020014D00F48806B38B1D6
:107C0000502080F31188BFF34F8FBFF36F8FFEE7D3
:107C100000F062F900211046FFF78AFA00F0E6FE54
:107C2000002807D105494FF080500860BFF34F8FFF
:107C3000BFF36F8F10BD00006400002004ED00E072
:107C400002498A6A02604969416070476400002005
:107C500001490120486270476400002010B50C46BD
:107C600050B1094909681831FFF702FF2046BDE805
:107C700010400121FFF75CBA502080F31188BFF358
:107C80004F8FBFF36F8FFEE76400002070B50400D4
:107C90004BD0A26CA2B1606C884200D30146E06A6E
:107CA000884242D0012A40D1204D2A6894420FD107
:107CB000502080F31188BFF34F8FBFF36F8FFEE723
:107CC000502080F31188BFF34F8FBFF36F8FFEE713
:107CD000E162A269002A02DBC1F10701A161144E31
:107CE00000EB8000616906EB800081421DD1201D00
:107CF000FFF781FE012150B9E06A00EB800256F8DF
:107D0000222022B9AA6901FA00F08243AA61E06A3E
:107D1000AA6981401143A96100EB800006EB800055
:107D2000211DBDE87040FFF7BBBE70BD64000020A0
:107D30008C0B002070B504002BD01A4D28688442AB
:107D40002FD0FFF7B9FE2046FFF70AFCE8B1201D4F
:107D5000FFF751FEE06A0121AA6981401143A96140
:107D6000114900EB800001EB8000211DFFF798FE18
:107D7000E06A2968C96A884207D30C494FF08050ED
:107D80000860BFF34F8FBFF36F8FBDE87040FFF700
:107D9000B3BE502080F31188BFF34F8FBFF36F8FB6
:107DA000FEE770BD640000208C0B002004ED00E0B5
:107DB00010B586B00024039405AA04A903A804946E
:107DC000FFF73EFEDDE903010094CDE90110002339
:107DD0000EA11048059A00F09BFC0F49002848634B
:107DE00011D0502080F31188BFF34F8FBFF36F8FF6
:107DF0004FF0FF3008630120C8614C6106B0BDE858
:107E0000104000F09FB806B010BD000049444C453A
:107E100000000000817301086400002070B5044672
:107E2000FFF74AFE294D04B92C68201DFFF7E3FD3A
:107E300058B9E06A264A00EB800152F8211021B9B6
:107E400001218140A8698843A861A06A18B104F1A2
:107E50001800FFF7D0FD1E48211DDC30FFF720FE83
:107E600094F850000026012801D184F85060FFF7F3
:107E700043FEE86928B1FFF71FFEFFF74DFBFFF750
:107E80003BFE2868844213D1E86990B1A86B38B1F1
:107E9000502080F31188BFF34F8FBFF36F8FFEE741
:107EA0000C494FF080500860BFF34F8FBFF36F8FC6
:107EB00070BD0748DC3000682969884201D12E6016
:107EC00070BDBDE8704000F00FB8000064000020F5
:107ED0008C0B002004ED00E00248816B491C81639B
:107EE00070470000640000201448816B11B101212B
:107EF00041627047002141628169B1FA81F1C1F1AB
:107F00001F0101EB81020E4951F822306BB101EBE8
:107F1000820101F108034A6852684A609A4201D11D
:107F200052684A60D16801607047502080F3118820
:107F3000BFF34F8FBFF36F8FFEE700006400002098
:107F40008C0B00201CB537480168374A914207D195
:107F5000502080F31188BFF34F8FBFF36F8FFEE780
:107F600000683149491E884207D1502080F31188AA
:107F7000BFF34F8FBFF36F8FFEE72C490878019056
:107F8000FF20087008788DF800009DF800009DF82B
:107F9000002000F0F000904207D0502080F31188BC
:107FA000BFF34F8FBFF36F8FFEE79DF80000204BAC
:107FB00000F0500018700720986005E09DF8002040
:107FC00052008DF80020401E9DF800201206F5D4C6
:107FD0009860032807D0502080F31188BFF34F8F9B
:107FE000BFF36F8FFEE74FF4407098600198087000
:107FF0000C482030016841F470010160016841F0D3
:1080000070410160FFF7BAFD00205860F7F7ECF807
:108010000848016841F040410160F7F7D1F80020BD
:108020001CBD000000ED00E071C20F4100E400E063
:10803000B800002034EF00E0F8B517460E46050002
:1080400014D0DEB105FB06F04830FFF7D9FA040082
:108050000AD0002084F8460004F148023B4631462D
:1080600028460094FFF7BCF92046F8BD502080F365
:108070001188BFF34F8FBFF36F8FFEE70020E3E758
:1080800038B5049D18B153B1CAB181B120E0502078
:1080900080F31188BFF34F8FBFF36F8FFEE750203F
:1080A00080F31188BFF34F8FBFF36F8FFEE750202F
:1080B00080F31188BFF34F8FBFF36F8FFEE739B1A5
:1080C000502080F31188BFF34F8FBFF36F8FFEE70F
:1080D00048241C46012384F846302B460094FFF7C1
:1080E0007FF9204638BD000070B50D46040025D04C
:1080F000FFF7E2FCD4E90F20216802FB0011A16028
:108100000021A163216861600A46D4E90F01401E85
:1081100000FB0121E16021464FF0FF3001F8440FE0
:10812000487004F110008DB1FFF794FC04F12400B5
:10813000FFF790FCFFF7E0FC012070BD502080F3BA
:108140001188BFF34F8FBFF36F8FFEE721690029BE
:10815000F0D000F011FC0028ECD004494FF0805022
:108160000860BFF34F8FBFF36F8FE3E704ED00E0CC
:108170002DE9FF4782B01D468A464FF000080400F3
:1081800003D0BAF1000F08D011E0502080F311881D
:10819000BFF34F8FBFF36F8FFEE7206C38B15020D5
:1081A00080F31188BFF34F8FBFF36F8FFEE7022D6F
:1081B0000AD1E06B012807D0502080F31188BFF36B
:1081C0004F8FBFF36F8FFEE700F0CEFA3F4F4FF0B7
:1081D00000094FF0805648B9049838B1502080F318
:1081E0001188BFF34F8FBFF36F8FFEE7FFF764FC7B
:1081F000A06BE16B884207D3022D05D00498D0B163
:10820000B8F1000F1AD01EE02A4651462046FFF76B
:1082100042F8616A19B104F1240000F0ADFB20B10D
:108220003E60BFF34F8FBFF36F8FFFF765FC0120F8
:1082300006B0BDE8F087FFF75FFC22E06846FFF775
:10824000FFFC4FF00108FFF757FCFFF745FEFFF773
:1082500033FC94F94400401C01D184F8449094F913
:108260004500401C01D184F84590FFF745FC04A966
:10827000684600F0E3F930B12046FFF78BF900F0D3
:10828000B5FB0020D4E7FFF717FCA06BE16B884239
:1082900013D1FFF731FC04F110000499FFF7DEFC65
:1082A0002046FFF777F900F0A1FB00289ED13E6041
:1082B000BFF34F8FBFF36F8F98E7FFF71DFC20468A
:1082C000FFF768F900F092FB90E7000004ED00E092
:1082D0002DE9F0471F4690468946040003D0B9F1C6
:1082E000000F08D011E0502080F31188BFF34F8FAA
:1082F000BFF36F8FFEE7206C38B1502080F31188F8
:10830000BFF34F8FBFF36F8FFEE7022F0AD1E06BF1
:10831000012807D0502080F31188BFF34F8FBFF39F
:108320006F8FFEE7FFF73CFC5020EFF3118680F3E0
:108330001188BFF34F8FBFF36F8FA06BE16B884243
:1083400006D3022F04D0002086F31188BDE8F08701
:1083500094F945503A4649462046FEF79CFF681C72
:1083600004D06D1C84F845500120EDE7606A0028B8
:10837000FAD004F1240000F0FFFA0028F4D0B8F19C
:10838000000FF1D00121C8F80010EDE72DE9F74703
:10839000002683B08A46040003D0BAF1000F08D04B
:1083A00011E0502080F31188BFF34F8FBFF36F8F20
:1083B000FEE7206C38B1502080F31188BFF34F8F57
:1083C000BFF36F8FFEE700F0CFF9DFF8F4804FF0D6
:1083D00000094FF0805748B9059838B1502080F314
:1083E0001188BFF34F8FBFF36F8FFEE7FFF764FB7A
:1083F000A56BC5B151462046FEF73AFF6D1EA56339
:10840000206950B104F1100000F0B6FA28B1C8F8A4
:108410000070BFF34F8FBFF36F8FFFF76DFB01202D
:1084200006B0BDE8F087059808B11EB106E0FFF779
:1084300063FB27E06846FFF703FC0126FFF75CFBC0
:10844000FFF74AFDFFF738FB94F94400401C01D1C7
:1084500084F8449094F94500401C01D184F845907B
:10846000FFF74AFB05A9684600F0E8F80028204617
:108470000AD0FFF78FF800F0B9FA2046FFF73EF870
:108480000028B3D00020CBE7FFF738F890B104F113
:1084900024000599FFF7E2FB2046FFF77BF800F088
:1084A000A5FA0028A2D1C8F80070BFF34F8FBFF320
:1084B0006F8F9BE72046FFF76DF800F097FA95E77E
:1084C00004ED00E02DE9F343002683B004003546B7
:1084D00009D0206C78B1502080F31188BFF34F8F02
:1084E000BFF36F8FFEE7502080F31188BFF34F8FEB
:1084F000BFF36F8FFEE700F037F9DFF83C814FF0F4
:1085000000094FF0805748B9049838B1502080F3E3
:108510001188BFF34F8FBFF36F8FFEE7FFF7CCFAE1
:10852000A06BC8B1401EA063206810B9FFF7D4F853
:10853000A060206950B104F1100000F01DFA28B1CC
:10854000C8F80070BFF34F8FBFF36F8FFFF7D4FAF7
:10855000012005B0BDE8F083049808B166B10FE0D2
:108560003DB1502080F31188BFF34F8FBFF36F8F61
:10857000FEE7FFF7C1FA5DE06846FFF761FB012601
:10858000FFF7BAFAFFF7A8FCFFF796FA94F9440050
:10859000401C01D184F8449094F94500401C01D15D
:1085A00084F84590FFF7A8FA04A9684600F046F859
:1085B0000028204612D0FEF7EDFF00F017FA204603
:1085C000FEF79CFF0028A9D09DB3FFF775FA606AFB
:1085D00050B3206B0068C0F1070126E0FEF78EFF64
:1085E000E0B1206838B9FFF767FAA06800F07AF9BF
:1085F0000546FFF781FA04F124000499FFF72EFBEA
:108600002046FEF7C7FF00F0F1F9002886D1C8F830
:108610000070BFF34F8FBFF36F8F7FE72046FEF7E9
:10862000B9FF00F0E3F979E70021A068FFF72EFB1E
:108630009FE7FFE700208CE704ED00E02DE9F04123
:108640000C46050011D0C4B1FFF736FA174B5A6932
:108650006E682068911B471C17D02F689B6A9F4249
:1086600019D0964217D8012410E0502080F31188C9
:10867000BFF34F8FBFF36F8FFEE7502080F3118859
:10868000BFF34F8FBFF36F8FFEE70024FFF734FA7D
:108690002046BDE8F081884205D9401A206028466E
:1086A000FFF7CEFAF1E700202060DCE7640000204D
:1086B0002DE9FF5F8346DDE90E87994616468A4617
:1086C0009000FEF79DFF05001CD05420FEF798FF98
:1086D000040014D00020256384F85100CDE9024045
:1086E000CDE900874B46324651465846FEF784FE98
:1086F0002046FEF755FD012004B000F006B82846DC
:10870000FFF70EFA4FF0FF30F6E730BCBDE8C09F30
:10871000F0B585B0DDE90B640A9DA6B1DCB1542744
:1087200000972663022684F85160002604AFCDE945
:108730000246CDE90057FEF75FFE2046FEF730FD0A
:10874000049805B0F0BD502080F31188BFF34F8F1F
:10875000BFF36F8FFEE7502080F31188BFF34F8F78
:10876000BFF36F8FFEE700000548C16919B1806B48
:1087700018B10020704701207047022070470000A8
:10878000640000202DE9F0412E4C0027A06B40B181
:10879000206A401C2062606A00B101273846BDE8AB
:1087A000F0816669761C666113D16068006838B133
:1087B000502080F31188BFF34F8FBFF36F8FFEE718
:1087C0006068A1686160A060A06A401CA062FEF7BA
:1087D000A3FE206BDFF87080864209D360680068D2
:1087E00080B16068C068C568686886420DD2206341
:1087F0002068C06A00EB800158F821000128CAD91E
:108800000127C8E74FF0FF30F1E7281DFFF7F3F825
:10881000A86A18B105F11800FFF7EDF8E86A012120
:10882000A26981401143A16100EB800108EB810046
:10883000291DFFF735F9E86A2168C96A8842CDD356
:108840000127CBE7640000208C0B002070B50400EA
:108850004FF0000140D0214D2868844207D05020BD
:1088600080F31188BFF34F8FBFF36F8FFEE7A06CCB
:1088700038B1401EA064636CE26A9A422CD040B1C9
:108880002AE0502080F31188BFF34F8FBFF36F8F22
:10889000FEE7201DFFF7AFF8114A012150B9E06A49
:1088A00000EB800352F8233023B9AB6901FA00F0E2
:1088B0008343AB61606CE062C0F10700A061E06AD5
:1088C000AB6981401943A96100EB800002EB800095
:1088D000211DFFF7E5F80121084670BD6400002066
:1088E0008C0B002070B504004FF0000038D0204DF4
:1088F000E16A2A68D26A914233D2A069002804DB77
:108900002868C06AC0F10700A0611A4E01EB81011E
:10891000606906EB810188421ED1201DFFF76BF8CC
:10892000012150B9E06A00EB800256F8222022B9FA
:10893000AA6901FA00F08243AA612868C06AE0626D
:10894000AA6981401143A96100EB800006EB800019
:10895000211DFFF7A5F802E02868C06AE062012047
:1089600070BD616C2A68D26A9142F8D370BD000074
:10897000640000208C0B00202DE9F041C068C46821
:10898000ACB104F118000746FFF735F8154DA86B98
:108990000126A0B139461448FFF782F8E06A296839
:1089A000C96A88421CD901206E62BDE8F08150205E
:1089B00080F31188BFF34F8FBFF36F8FFEE7201D49
:1089C000FFF719F8E16AAA6906FA01F01043A861F5
:1089D00001EB81000449B43901EB8000211DDBE784
:1089E0000020E2E764000020400C00202DE9F04761
:1089F0002C4D00242746A86B38B1FFF75DF8A86B13
:108A0000401EA863A86B40B146E0502080F3118857
:108A1000BFF34F8FBFF36F8FFEE72969224E01200E
:108A2000D1B3A6F1B40980463068E8B1F068C468F3
:108A300004F11800FEF7DFFF201DFEF7DCFFE06AFF
:108A4000AA6908FA00F11143A96100EB800109EB62
:108A50008100211DFFF724F8E06A2968C96A88426D
:108A6000E2D3C5F82480DFE70CB1FEF755FD2C6A90
:108A700044B14646FFF786FE00B16E62641EF9D12E
:108A800000202862686A38B1084901273807086061
:108A9000BFF34F8FBFF36F8FFFF72EF83846BDE857
:108AA000F087000064000020400C002004ED00E08E
:108AB00002000000040000000000000000000000B0
:108AC000050000000400000000000000000000009D
:108AD000030000000400000000000000000000008F
:108AE000ACA20108CD4A010800000000000000000F
:108AF00080000000000000000000000094A20108B7
:108B0000ED4A01080200000000000000000800001B
:108B10000000000000000000A0A201083D4D010877
:108B2000FDFF000000000000000400000000000045
:108B30000000000080A20108ED4C010800000000C8
:108B4000000000000008000000000000000000001D
:108B50008CA20108814D0108FDFF0000000000000B
:108B60008000000000000000000000000000000085
:108B7000000000000102030406070809A0860100A6
:108B8000400D0300801A060000350C0040420F0023
:108B900080841E0000093D0000127A000024F400C9
:108BA00000366E010048E801006CDC0200000000A5
:108BB00001020304000000000000000000000000AB
:108BC0000000202020202000002000002828500045
:108BD000000000000000000000005050F85050F865
:108BE00050500000002070A8A0603028A87020001D
:108BF000000048A8B0A87434544800000000205079
:108C0000506CA8A89468000040408000000000005C
:108C10000000000008101020202020201010080064
:108C200040202010101010102020400000000020D4
:108C3000A87070A82000000000000010107C101028
:108C40000000000000000000000000004040800024
:108C50000000000000FC0000000000000000000018
:108C60000000000000400000000408081010202050
:108C700040408000000070888888888888700000E4
:108C8000000020602020202020700000000070885C
:108C90008810204080F80000000070880830080824
:108CA0008870000000001030305090F8103800003C
:108CB0000000F88080F088088870000000003048CC
:108CC00080B0C8888870000000007808101020204C
:108CD000202000000000708888708888887000005C
:108CE000000070888898680890600000000000000C
:108CF0002000000000200000000000000020000014
:108D00000020200000000810204040201008000033
:108D100000000000FC00FC000000000000004020FB
:108D200010080810204000000000708888102020E3
:108D3000002000000000384494B4B4B84438000067
:108D4000000020203050507848CC00000000F0484F
:108D50004870484848F00000000078888080808093
:108D6000887000000000F0484848484848F000007B
:108D70000000F8485070504048F800000000F848E3
:108D80005070504040E000000000384880809C88CF
:108D9000483000000000CC484878484848CC0000E3
:108DA0000000F8202020202020F8000000007C1087
:108DB00010101010101090E00000EC485060504867
:108DC00048EC00000000E0404040404044FC00000F
:108DD0000000DCD8D8D8A8A8A8AC00000000DC4867
:108DE0006868585848E800000000708888888888BB
:108DF000887000000000F0484870404040E00000EB
:108E000000007088888888E8987018000000F04892
:108E10004870504848EC00000000788880601008D6
:108E200088F000000000F8A820202020207000001A
:108E30000000CC4848484848483000000000CC4872
:108E400048505030202000000000A8A8A8A870506A
:108E5000505000000000D8505020205050D8000042
:108E60000000D85050502020207000000000F890E2
:108E70001020204048F8000038202020202020200A
:108E8000202038000040402020201010100808004A
:108E900070101010101010101010700020500000F2
:108EA00000000000000000000000000000000000C2
:108EB000000000FC40200000000000000000000056
:108EC0000000000000304838483C000000C040402E
:108ED00040704848487000000000000000384840DA
:108EE000483000000018080808384848483C00008E
:108EF00000000000003048784038000000182420AE
:108F0000207820202078000000000000003C48303D
:108F10004038443800C040404070484848EC0000A9
:108F200000202000006020202070000000101000B1
:108F300000301010101010E000C040404058506049
:108F400050C8000000E020202020202020F8000051
:108F50000000000000F0A8A8A8A800000000000081
:108F600000F0484848EC000000000000003048488D
:108F7000483000000000000000F04848487040E021
:108F800000000000003848484838081C0000000075
:108F900000D8604040E00000000000000078403051
:108FA00008780000000000202078202020380000F1
:108FB0000000000000D84848483C000000000000C5
:108FC00000D85050202000000000000000A8A87029
:108FD000505000000000000000D8502050D8000081
:108FE0000000000000CC4848301020C00000000005
:108FF0000078102020780000181010101030101089
:109000001010180010101010101010101010101068
:109010006020202020102020202060006890000088
:109020000000000000000000000000000000000040
:109030000000000000000000000000000000000030
:109040000000000000000000000000000000000020
:109050000000000000000000000000000000000010
:1090600006000600060006000600060006000200D4
:1090700004000400040000000000000006000600D8
:10908000060000000000000000000000066006600E
:109090000CC0198011002200000000000000000038
:1090A00000000000000000000000000000000000C0
:1090B00000000000000000000000000000000000B0
:1090C00008400840084008407FE07FE010401080E2
:1090D0001080108010807FE07FE020802080208042
:1090E00020800000000000000000000000000200DE
:1090F00002000F801AC032C033C032001A000E00C6
:1091000007000380038002C032C03AC032C0128020
:109110000F0002000200000000000000000000003C
:10912000708050808900890089008A008A005C0074
:1091300075C005400A200A2012201220122021406A
:1091400021C000000000000000000000000000003E
:109150001C0036003600360036003600340019E0B8
:1091600038805880CC80CC80C680C700C310639004
:109170003CE000000000000000000000300038006B
:10918000080008001000200000000000000000009F
:1091900000000000000000000000000000000000CF
:1091A000000000000000000000000000002000405F
:1091B000008001000100020002000400040004001D
:1091C0000400040004000400020002000100010089
:1091D000008000400020000000000000400020004F
:1091E0001000080008000400040002000200020051
:1091F000020002000200020004000400080008004F
:1092000010002000400000000000000000000000EE
:1092100000000000020003000200623072F00B80C8
:109220000F807AF0623002000200020000000000AD
:10923000000000000000000000000000000000002E
:109240000000000000000200020002000200020014
:109250007FF0020002000200020002000000000095
:1092600000000000000000000000000000000000FE
:1092700000000000000000000000000000000000EE
:109280000000000000000000000000003000380076
:10929000080008001000200000000000000000008E
:1092A00000000000000000000000000000000000BE
:1092B0007FE000000000000000000000000000004F
:1092C000000000000000000000000000000000009E
:1092D000000000000000000000000000000000008E
:1092E000000000000000000000000000380038000E
:1092F00038000000000000000000000000200060B6
:10930000004000C000800080010001000200020057
:1093100006000400040008000800100010003000DF
:10932000200060004000000000000000000000007D
:1093300000000F00198030C030C060606060606065
:109340006060606060606060606030C030C01980E4
:109350000F000000000000000000000000000000FE
:10936000000002003E00060006000600060006009F
:1093700006000600060006000600060006000600BD
:109380003FC00000000000000000000000000000DE
:1093900000001F00218040C060C060C000C000808D
:1093A00001800300060004000800104020406040D7
:1093B0007FC000000000000000000000000000006E
:1093C00000001E0063006180618001800180030055
:1093D0000E000180008000C000C060C060C06180DD
:1093E0001F0000000000000000000000000000005E
:1093F00000000180018003800580058009801180C4
:109400001180218041807FF00180018001800180F6
:1094100007E0000000000000000000000000000065
:1094200000003FC0200020002000200020002F006E
:10943000318020C000C000C060C060C04180218079
:109440001F000000000000000000000000000000FD
:109450000000078018C030C0300020006000678026
:1094600068C070606060606060602060304018C0FC
:109470000F000000000000000000000000000000DD
:1094800000001FE03060204020800080008001004C
:1094900001000200020002000600060006000600AD
:1094A00006000000000000000000000000000000B6
:1094B00000001F8030C0606060606060304038C075
:1094C0000F00138030C0606060606060606030C01A
:1094D0000F800000000000000000000000000000FD
:1094E00000000F00308030C06040606060606060ED
:1094F00060E031601E60006000C000C030803180DC
:109500001E0000000000000000000000000000003D
:10951000000000000000000000000000070007003D
:109520000700000000000000000000000700070026
:109530000700000000000000000000000000000024
:10954000000000000000000000000000060006000F
:109550000000000000000000000000000000060005
:1095600006000200040004000000000000000000EB
:1095700000200040008001000200040008001000EC
:1095800020001000080004000200010000800040DC
:1095900000200000000000000000000000000000AB
:1095A0000000000000000000000000007FE000005C
:1095B000000000007FE0000000000000000000004C
:1095C000000000000000000000000000000000009B
:1095D000200010000800040002000100008000408C
:1095E000002000400080010002000400080010007C
:1095F000200000000000000000000000000000004B
:10960000000007C01860203020303030303000E0DB
:1096100001800200020002000000000007000700B5
:109620000700000000000000000000000000000033
:10963000070018C0304033A026A066A065A06D20AA
:109640006D206D206D206D4027803020304018C087
:109650000F000000000000000000000000000000FB
:109660000000060006000A000B00090009001100B6
:10967000118010801F8020C020C0204040404060EA
:10968000F0F00000000000000000000000000000FA
:1096900000007F0031C030C030C030C030C03180E9
:1096A0003F0030C03040306030603060306030C0EB
:1096B0007F800000000000000000000000000000AB
:1096C000000007C018C0306030202020600060001B
:1096D000600060006000600060203020304018C0F2
:1096E0000F0000000000000000000000000000006B
:1096F0000000FE00318030C030C03060306030602B
:109700003060306030603060306030C030C03180F8
:10971000FE0000000000000000000000000000004B
:109720000000FFC060C06020602060006100610038
:109730007F00610061006100600060206020604087
:10974000FFC000000000000000000000000000005A
:109750000000FFC060C06020602060006100610008
:109760007F006100610061006000600060006000D7
:10977000F8000000000000000000000000000000F1
:1097800000000F0018803040304020406000600032
:109790006000600063F060C060C030C030C018C0BE
:1097A0000F000000000000000000000000000000AA
:1097B0000000F0F060606060606060606060606049
:1097C0007FE06060606060606060606060606060FA
:1097D000F0F00000000000000000000000000000A9
:1097E00000003FC006000600060006000600060056
:1097F0000600060006000600060006000600060039
:109800003FC0000000000000000000000000000059
:1098100000001FE003000300030003000300030037
:109820000300030003000300030003000300030020
:109830000300630066003C00000000000000000020
:109840000000F3C0618063006200640068006C0087
:10985000740076006200630061006180608060C017
:10986000F1E0000000000000000000000000000027
:109870000000F800600060006000600060006000B0
:109880006000600060006000600060206020604058
:10989000FFC0000000000000000000000000000009
:1098A0000000E0E061C061C071C071C072C072C0F0
:1098B00052C05AC05AC05CC04CC04CC04CC048C01A
:1098C000E1E00000000000000000000000000000D7
:1098D000000071F03040384038402C402C40264089
:1098E000264022402340214021C021C020C020C06A
:1098F000F840000000000000000000000000000030
:1099000000000F00198030C030406060606060600F
:1099100060606060606060606060304030C019808E
:109920000F00000000000000000000000000000028
:109930000000FF0060C06060606060606060606048
:1099400061C07F0060006000600060006000600037
:10995000F80000000000000000000000000000000F
:1099600000000F00198030C03040606060606060AF
:1099700060606060606060606E60324033C019801B
:109980000F0001E000C00000000000000000000027
:109990000000FF8060C0606060606060606060C008
:1099A0007F00620063006100618060C060C0606031
:1099B000F070000000000000000000000000000047
:1099C00000001F4030C060406040600070003C00FC
:1099D0001F0007C001C000E040604060606030C010
:1099E0000F800000000000000000000000000000E8
:1099F00000007FE046208610861006000600060064
:109A00000600060006000600060006000600060026
:109A10001F800000000000000000000000000000A7
:109A2000000078E03040304030403040304030403E
:109A3000304030403040304030403040304018807E
:109A40000F00000000000000000000000000000007
:109A50000000F0E0604020802080308030801100E5
:109A60001100190019000A000A000E000C00040081
:109A700004000000000000000000000000000000E2
:109A80000000EF70462042206220622026402640DF
:109A900027402740394039801980198011801100F2
:109AA00011000000000000000000000000000000A5
:109AB000000079E030801080188009000D00060059
:109AC0000400060006000B0009001180108020C071
:109AD00071E0000000000000000000000000000035
:109AE0000000F0F0602020403040108018801D0001
:109AF0000D000E0006000600060006000600060027
:109B00001F800000000000000000000000000000B6
:109B100000003FE0304060C0408001800100020052
:109B2000020004000400080018001020302020402B
:109B30007FC00000000000000000000007C004001B
:109B400004000400040004000400040004000400F5
:109B500004000400040004000400040004000400E5
:109B60000400040007C00000000000000000000026
:109B70002000200010001000080008000800040069
:109B800004000200020003000100010000800080C8
:109B90000040004000400020000000003E000200A5
:109BA00002000200020002000200020002000200A5
:109BB0000200020002000200020002000200020095
:109BC000020002003E0000000000060009001080B4
:109BD0000000000000000000000000000000000085
:109BE0000000000000000000000000000000000075
:109BF0000000000000000000000000000000000065
:109C00000000000000000000000000000000000054
:109C10000000000000000000000000000000000044
:109C2000000000000000FFF0000000001800060027
:109C30000000000000000000000000000000000024
:109C40000000000000000000000000000000000014
:109C50000000000000000000000000000000000004
:109C60000000000000000000000000000F8030C075
:109C700030C000C007C038C070C060C060C071D0C4
:109C80003E70000000000000000000000000000026
:109C900010007000300030003000300033803CC0D5
:109CA000386030603060306030603060304038C0E4
:109CB00027800000000000000000000000000000FD
:109CC0000000000000000000000000000F003180D4
:109CD0003180618060006000600060403040308012
:109CE0000F00000000000000000000000000000065
:109CF000004003C000C000C000C000C01EC031C092
:109D000030C060C060C060C060C060C020C031E0D2
:109D10001E800000000000000000000000000000A5
:109D2000000000000000000000000000078018C0D4
:109D30001040306030603FE03000300018201840A4
:109D4000078000000000000000000000000000008C
:109D5000000003C006600C600C000C007F800C004B
:109D60000C000C000C000C000C000C000C000C0093
:109D70003F80000000000000000000000000000024
:109D80000000000000000000000000000FE01B6069
:109D900031803180318019801F0030003F0033C096
:109DA00060C060C071C01F00000000000000000023
:109DB000100070003000300030003000378038C0B4
:109DC00030C030C030C030C030C030C030C030C013
:109DD00079E000000000000000000000000000002A
:109DE0000000060006000000000002003E00060021
:109DF0000600060006000600060006000600060033
:109E00003FC0000000000000000000000000000053
:109E10000000038003800000000000800F800180AC
:109E2000018001800180018001800180018001802A
:109E30000180018033003E000000000000000000AF
:109E400010007000300030003000300031C03100B0
:109E50003100320036003A0031003180308030C0AD
:109E600079E0000000000000000000000000000099
:109E700002003E000600060006000600060006007E
:109E800006000600060006000600060006000600A2
:109E90003FC00000000000000000000000000000C3
:109EA000000000000000000000000000ECE077600F
:109EB0006660666066606660666066606660666072
:109EC000FFF00000000000000000000000000000A3
:109ED000000000000000000000000000778038C093
:109EE00030C030C030C030C030C030C030C030C0F2
:109EF00079E0000000000000000000000000000009
:109F00000000000000000000000000000F001980A9
:109F100030C06060606060606060606030C030C0B1
:109F20000F00000000000000000000000000000022
:109F3000000000000000000000000000778038C032
:109F400030603060306030603060306030C038C0C9
:109F50003780300030007C0000000000000000006E
:109F60000000000000000000000000001E4031C0A2
:109F700030C060C060C060C060C060C020C031C080
:109F80001EC000C000C003E0000000000000000090
:109F9000000000000000000000000000F9C01A608E
:109FA0001C6018001800180018001800180018008D
:109FB000FF000000000000000000000000000000A2
:109FC0000000000000000000000000000FC038C0CA
:109FD000304030401C000F0003C020C020C031C002
:109FE0003F800000000000000000000000000000B2
:109FF00000000000040004000C000C007F800C0036
:10A000000C000C000C000C000C000C000C400C4070
:10A0100007800000000000000000000000000000B9
:10A0200000000000000000000000104071C030C0BF
:10A0300030C030C030C030C030C030C030C039E077
:10A040001E80000000000000000000000000000072
:10A0500000000000000000000000000078E0304038
:10A0600010801080188009000D000D000600060009
:10A0700004000000000000000000000000000000DC
:10A08000000000000000000000000000EF7046200B
:10A090006220264026403740398019801980198077
:10A0A00010000000000000000000000000000000A0
:10A0B0000000000000000000000000003DE01880EB
:10A0C00008800D000600060007000900108010C07F
:10A0D00079E0000000000000000000000000000027
:10A0E00000000000000000000000000079E0108087
:10A0F00010801080090009000D000600060006000F
:10A1000004000400240038000000000000000000EB
:10A110000000000000000000000000003F802180DF
:10A1200023002200060004000C001840104030C03C
:10A130003F800000000000000000000000C001009F
:10A140000100010001000100010001000100020006
:10A1500004000200010001000100010001000100F3
:10A160000100010000C00000020002000200020025
:10A1700002000200020002000200020002000200CF
:10A1800002000200020002000200020002000200BF
:10A19000020002000200020000000000300008007F
:10A1A0000800080008000800080008000800040073
:10A1B0000200040008000800080008000800080069
:10A1C0000800080030000000000038004420432050
:10A1D00001C00000000000000000000000000000BE
:10A1E000000000000000000000000000000000006F
:10A1F000000000000000000000404040404040409F
:10A200004040414141414140404040404040404049
:10A2100040404040404040404005020202020202ED
:10A22000020202020202020202202020202020203C
:10A230002020200202020202020290909090909050
:10A24000101010101010101010101010101010100E
:10A250001010101002020202020288888888888882
:10A26000080808080808080808080808080808086E
:10A27000080808080202020240000000F9A10108D3
:10A280004F54415F5461736B0000000055495F54A7
:10A2900061736B004543363030535F5461736B001C
:10A2A00053656E736F725F5461736B0064656661B2
:10A2B000756C745461736B00D8A201080000002013
:10A2C000EC00000048550108C4A30108EC00002080
:10A2D000E4BD000058550108000000000000000027
:10A2E000000000000000000000000000000000006E
:10A2F000000000000000000000000000000000005E
:10A30000000000000000000000000000010000004C
:10A31000100000000000000000000000000000002D
:10A32000000000000000000001000000000000002C
:10A33000000000000000000000093D0000000000D7
:10A34000000000000000000000000000000000000D
:10A3500000000000000000000000000000000000FD
:10A3600000000000000000000000000000000000ED
:10A3700000000000000000000000000000000000DD
:10A3800000000000000000000000000000000000CD
:10A3900000000000AAAAAAAA00000000F401000020
:10A3A0000000000000000000F95401087554010885
:10A3B0001D77010800000000000000000000000000
:04A3C0000000000099
:040000050800F18D71
:00000001FF
